{
  "contractName": "AirdropNFT",
  "abi": [
    {
      "inputs": [],
      "stateMutability": "nonpayable",
      "type": "constructor"
    },
    {
      "anonymous": false,
      "inputs": [
        {
          "indexed": true,
          "internalType": "address",
          "name": "owner",
          "type": "address"
        },
        {
          "indexed": true,
          "internalType": "address",
          "name": "approved",
          "type": "address"
        },
        {
          "indexed": true,
          "internalType": "uint256",
          "name": "tokenId",
          "type": "uint256"
        }
      ],
      "name": "Approval",
      "type": "event"
    },
    {
      "anonymous": false,
      "inputs": [
        {
          "indexed": true,
          "internalType": "address",
          "name": "owner",
          "type": "address"
        },
        {
          "indexed": true,
          "internalType": "address",
          "name": "operator",
          "type": "address"
        },
        {
          "indexed": false,
          "internalType": "bool",
          "name": "approved",
          "type": "bool"
        }
      ],
      "name": "ApprovalForAll",
      "type": "event"
    },
    {
      "anonymous": false,
      "inputs": [
        {
          "indexed": true,
          "internalType": "bytes32",
          "name": "role",
          "type": "bytes32"
        },
        {
          "indexed": true,
          "internalType": "bytes32",
          "name": "previousAdminRole",
          "type": "bytes32"
        },
        {
          "indexed": true,
          "internalType": "bytes32",
          "name": "newAdminRole",
          "type": "bytes32"
        }
      ],
      "name": "RoleAdminChanged",
      "type": "event"
    },
    {
      "anonymous": false,
      "inputs": [
        {
          "indexed": true,
          "internalType": "bytes32",
          "name": "role",
          "type": "bytes32"
        },
        {
          "indexed": true,
          "internalType": "address",
          "name": "account",
          "type": "address"
        },
        {
          "indexed": true,
          "internalType": "address",
          "name": "sender",
          "type": "address"
        }
      ],
      "name": "RoleGranted",
      "type": "event"
    },
    {
      "anonymous": false,
      "inputs": [
        {
          "indexed": true,
          "internalType": "bytes32",
          "name": "role",
          "type": "bytes32"
        },
        {
          "indexed": true,
          "internalType": "address",
          "name": "account",
          "type": "address"
        },
        {
          "indexed": true,
          "internalType": "address",
          "name": "sender",
          "type": "address"
        }
      ],
      "name": "RoleRevoked",
      "type": "event"
    },
    {
      "anonymous": false,
      "inputs": [
        {
          "indexed": true,
          "internalType": "address",
          "name": "from",
          "type": "address"
        },
        {
          "indexed": true,
          "internalType": "address",
          "name": "to",
          "type": "address"
        },
        {
          "indexed": true,
          "internalType": "uint256",
          "name": "tokenId",
          "type": "uint256"
        }
      ],
      "name": "Transfer",
      "type": "event"
    },
    {
      "inputs": [],
      "name": "DEFAULT_ADMIN_ROLE",
      "outputs": [
        {
          "internalType": "bytes32",
          "name": "",
          "type": "bytes32"
        }
      ],
      "stateMutability": "view",
      "type": "function",
      "constant": true
    },
    {
      "inputs": [
        {
          "internalType": "uint256",
          "name": "",
          "type": "uint256"
        }
      ],
      "name": "Raffles",
      "outputs": [
        {
          "internalType": "string",
          "name": "tittle",
          "type": "string"
        },
        {
          "internalType": "string",
          "name": "description",
          "type": "string"
        },
        {
          "internalType": "string",
          "name": "jpeg",
          "type": "string"
        },
        {
          "internalType": "string",
          "name": "metaUrl",
          "type": "string"
        }
      ],
      "stateMutability": "view",
      "type": "function",
      "constant": true
    },
    {
      "inputs": [],
      "name": "Validator",
      "outputs": [
        {
          "internalType": "address",
          "name": "",
          "type": "address"
        }
      ],
      "stateMutability": "view",
      "type": "function",
      "constant": true
    },
    {
      "inputs": [
        {
          "internalType": "address",
          "name": "to",
          "type": "address"
        },
        {
          "internalType": "uint256",
          "name": "tokenId",
          "type": "uint256"
        }
      ],
      "name": "approve",
      "outputs": [],
      "stateMutability": "nonpayable",
      "type": "function"
    },
    {
      "inputs": [
        {
          "internalType": "address",
          "name": "owner",
          "type": "address"
        }
      ],
      "name": "balanceOf",
      "outputs": [
        {
          "internalType": "uint256",
          "name": "",
          "type": "uint256"
        }
      ],
      "stateMutability": "view",
      "type": "function",
      "constant": true
    },
    {
      "inputs": [
        {
          "internalType": "uint256",
          "name": "tokenId",
          "type": "uint256"
        }
      ],
      "name": "getApproved",
      "outputs": [
        {
          "internalType": "address",
          "name": "",
          "type": "address"
        }
      ],
      "stateMutability": "view",
      "type": "function",
      "constant": true
    },
    {
      "inputs": [
        {
          "internalType": "bytes32",
          "name": "role",
          "type": "bytes32"
        }
      ],
      "name": "getRoleAdmin",
      "outputs": [
        {
          "internalType": "bytes32",
          "name": "",
          "type": "bytes32"
        }
      ],
      "stateMutability": "view",
      "type": "function",
      "constant": true
    },
    {
      "inputs": [
        {
          "internalType": "bytes32",
          "name": "role",
          "type": "bytes32"
        },
        {
          "internalType": "address",
          "name": "account",
          "type": "address"
        }
      ],
      "name": "grantRole",
      "outputs": [],
      "stateMutability": "nonpayable",
      "type": "function"
    },
    {
      "inputs": [
        {
          "internalType": "bytes32",
          "name": "role",
          "type": "bytes32"
        },
        {
          "internalType": "address",
          "name": "account",
          "type": "address"
        }
      ],
      "name": "hasRole",
      "outputs": [
        {
          "internalType": "bool",
          "name": "",
          "type": "bool"
        }
      ],
      "stateMutability": "view",
      "type": "function",
      "constant": true
    },
    {
      "inputs": [
        {
          "internalType": "address",
          "name": "owner",
          "type": "address"
        },
        {
          "internalType": "address",
          "name": "operator",
          "type": "address"
        }
      ],
      "name": "isApprovedForAll",
      "outputs": [
        {
          "internalType": "bool",
          "name": "",
          "type": "bool"
        }
      ],
      "stateMutability": "view",
      "type": "function",
      "constant": true
    },
    {
      "inputs": [],
      "name": "name",
      "outputs": [
        {
          "internalType": "string",
          "name": "",
          "type": "string"
        }
      ],
      "stateMutability": "view",
      "type": "function",
      "constant": true
    },
    {
      "inputs": [
        {
          "internalType": "address",
          "name": "",
          "type": "address"
        }
      ],
      "name": "ownerByAddress",
      "outputs": [
        {
          "internalType": "bool",
          "name": "",
          "type": "bool"
        }
      ],
      "stateMutability": "view",
      "type": "function",
      "constant": true
    },
    {
      "inputs": [
        {
          "internalType": "uint256",
          "name": "tokenId",
          "type": "uint256"
        }
      ],
      "name": "ownerOf",
      "outputs": [
        {
          "internalType": "address",
          "name": "",
          "type": "address"
        }
      ],
      "stateMutability": "view",
      "type": "function",
      "constant": true
    },
    {
      "inputs": [
        {
          "internalType": "uint256",
          "name": "",
          "type": "uint256"
        }
      ],
      "name": "owners",
      "outputs": [
        {
          "internalType": "address",
          "name": "",
          "type": "address"
        }
      ],
      "stateMutability": "view",
      "type": "function",
      "constant": true
    },
    {
      "inputs": [
        {
          "internalType": "bytes32",
          "name": "role",
          "type": "bytes32"
        },
        {
          "internalType": "address",
          "name": "account",
          "type": "address"
        }
      ],
      "name": "renounceRole",
      "outputs": [],
      "stateMutability": "nonpayable",
      "type": "function"
    },
    {
      "inputs": [
        {
          "internalType": "bytes32",
          "name": "role",
          "type": "bytes32"
        },
        {
          "internalType": "address",
          "name": "account",
          "type": "address"
        }
      ],
      "name": "revokeRole",
      "outputs": [],
      "stateMutability": "nonpayable",
      "type": "function"
    },
    {
      "inputs": [
        {
          "internalType": "address",
          "name": "from",
          "type": "address"
        },
        {
          "internalType": "address",
          "name": "to",
          "type": "address"
        },
        {
          "internalType": "uint256",
          "name": "tokenId",
          "type": "uint256"
        }
      ],
      "name": "safeTransferFrom",
      "outputs": [],
      "stateMutability": "nonpayable",
      "type": "function"
    },
    {
      "inputs": [
        {
          "internalType": "address",
          "name": "from",
          "type": "address"
        },
        {
          "internalType": "address",
          "name": "to",
          "type": "address"
        },
        {
          "internalType": "uint256",
          "name": "tokenId",
          "type": "uint256"
        },
        {
          "internalType": "bytes",
          "name": "_data",
          "type": "bytes"
        }
      ],
      "name": "safeTransferFrom",
      "outputs": [],
      "stateMutability": "nonpayable",
      "type": "function"
    },
    {
      "inputs": [
        {
          "internalType": "address",
          "name": "operator",
          "type": "address"
        },
        {
          "internalType": "bool",
          "name": "approved",
          "type": "bool"
        }
      ],
      "name": "setApprovalForAll",
      "outputs": [],
      "stateMutability": "nonpayable",
      "type": "function"
    },
    {
      "inputs": [],
      "name": "symbol",
      "outputs": [
        {
          "internalType": "string",
          "name": "",
          "type": "string"
        }
      ],
      "stateMutability": "view",
      "type": "function",
      "constant": true
    },
    {
      "inputs": [],
      "name": "tokenCounter",
      "outputs": [
        {
          "internalType": "uint256",
          "name": "",
          "type": "uint256"
        }
      ],
      "stateMutability": "view",
      "type": "function",
      "constant": true
    },
    {
      "inputs": [
        {
          "internalType": "uint256",
          "name": "tokenId",
          "type": "uint256"
        }
      ],
      "name": "tokenURI",
      "outputs": [
        {
          "internalType": "string",
          "name": "",
          "type": "string"
        }
      ],
      "stateMutability": "view",
      "type": "function",
      "constant": true
    },
    {
      "inputs": [
        {
          "internalType": "address",
          "name": "from",
          "type": "address"
        },
        {
          "internalType": "address",
          "name": "to",
          "type": "address"
        },
        {
          "internalType": "uint256",
          "name": "tokenId",
          "type": "uint256"
        }
      ],
      "name": "transferFrom",
      "outputs": [],
      "stateMutability": "nonpayable",
      "type": "function"
    },
    {
      "inputs": [
        {
          "internalType": "address",
          "name": "_owner",
          "type": "address"
        }
      ],
      "name": "setOwner",
      "outputs": [],
      "stateMutability": "nonpayable",
      "type": "function"
    },
    {
      "inputs": [
        {
          "internalType": "string",
          "name": "_tittle",
          "type": "string"
        },
        {
          "internalType": "string",
          "name": "_description",
          "type": "string"
        },
        {
          "internalType": "string",
          "name": "_jpeg",
          "type": "string"
        },
        {
          "internalType": "string",
          "name": "_metaUrl",
          "type": "string"
        }
      ],
      "name": "createNFT",
      "outputs": [
        {
          "internalType": "uint256",
          "name": "",
          "type": "uint256"
        }
      ],
      "stateMutability": "nonpayable",
      "type": "function"
    },
    {
      "inputs": [
        {
          "internalType": "uint256",
          "name": "tokenId",
          "type": "uint256"
        },
        {
          "internalType": "string",
          "name": "_tittle",
          "type": "string"
        },
        {
          "internalType": "string",
          "name": "_description",
          "type": "string"
        },
        {
          "internalType": "string",
          "name": "_jpeg",
          "type": "string"
        },
        {
          "internalType": "string",
          "name": "_metaUrl",
          "type": "string"
        }
      ],
      "name": "modifyNFT",
      "outputs": [
        {
          "internalType": "bool",
          "name": "",
          "type": "bool"
        }
      ],
      "stateMutability": "nonpayable",
      "type": "function"
    },
    {
      "inputs": [
        {
          "internalType": "uint256",
          "name": "tokenId",
          "type": "uint256"
        },
        {
          "internalType": "string",
          "name": "_metaUrl",
          "type": "string"
        }
      ],
      "name": "changeMetaData",
      "outputs": [],
      "stateMutability": "nonpayable",
      "type": "function"
    },
    {
      "inputs": [
        {
          "internalType": "uint256",
          "name": "tokenId",
          "type": "uint256"
        },
        {
          "internalType": "address",
          "name": "_to",
          "type": "address"
        }
      ],
      "name": "rewardNFT",
      "outputs": [],
      "stateMutability": "nonpayable",
      "type": "function"
    },
    {
      "inputs": [
        {
          "internalType": "address",
          "name": "",
          "type": "address"
        },
        {
          "internalType": "address",
          "name": "",
          "type": "address"
        },
        {
          "internalType": "uint256",
          "name": "",
          "type": "uint256"
        },
        {
          "internalType": "bytes",
          "name": "",
          "type": "bytes"
        }
      ],
      "name": "onERC721Received",
      "outputs": [
        {
          "internalType": "bytes4",
          "name": "",
          "type": "bytes4"
        }
      ],
      "stateMutability": "nonpayable",
      "type": "function"
    },
    {
      "inputs": [
        {
          "internalType": "bytes4",
          "name": "interfaceId",
          "type": "bytes4"
        }
      ],
      "name": "supportsInterface",
      "outputs": [
        {
          "internalType": "bool",
          "name": "",
          "type": "bool"
        }
      ],
      "stateMutability": "view",
      "type": "function",
      "constant": true
    }
  ],
  "bytecode": "0x60806040523480156200001157600080fd5b506040518060400160405280600881526020017f416c74616e7469730000000000000000000000000000000000000000000000008152506040518060400160405280600681526020017f526166666c650000000000000000000000000000000000000000000000000000815250816000908051906020019062000096929190620002f8565b508060019080519060200190620000af929190620002f8565b5050506000600881905550620000de6000801b620000d26200017d60201b60201c565b6200018560201b60201c565b6001600c60003373ffffffffffffffffffffffffffffffffffffffff1673ffffffffffffffffffffffffffffffffffffffff16815260200190815260200160002060006101000a81548160ff02191690831515021790555033600960006101000a81548173ffffffffffffffffffffffffffffffffffffffff021916908373ffffffffffffffffffffffffffffffffffffffff1602179055506200040d565b600033905090565b6200019782826200019b60201b60201c565b5050565b620001ad82826200028d60201b60201c565b620002895760016007600084815260200190815260200160002060000160008373ffffffffffffffffffffffffffffffffffffffff1673ffffffffffffffffffffffffffffffffffffffff16815260200190815260200160002060006101000a81548160ff0219169083151502179055506200022e6200017d60201b60201c565b73ffffffffffffffffffffffffffffffffffffffff168173ffffffffffffffffffffffffffffffffffffffff16837f2f8788117e7eff1d82e926ec794901d17c78024a50270940304540a733656f0d60405160405180910390a45b5050565b60006007600084815260200190815260200160002060000160008373ffffffffffffffffffffffffffffffffffffffff1673ffffffffffffffffffffffffffffffffffffffff16815260200190815260200160002060009054906101000a900460ff16905092915050565b8280546200030690620003a8565b90600052602060002090601f0160209004810192826200032a576000855562000376565b82601f106200034557805160ff191683800117855562000376565b8280016001018555821562000376579182015b828111156200037557825182559160200191906001019062000358565b5b50905062000385919062000389565b5090565b5b80821115620003a45760008160009055506001016200038a565b5090565b60006002820490506001821680620003c157607f821691505b60208210811415620003d857620003d7620003de565b5b50919050565b7f4e487b7100000000000000000000000000000000000000000000000000000000600052602260045260246000fd5b6146bd806200041d6000396000f3fe608060405234801561001057600080fd5b50600436106101da5760003560e01c80636352211e11610104578063a217fddf116100a2578063d082e38111610071578063d082e381146105b2578063d547741f146105d0578063e985e9c5146105ec578063eb6b192f1461061c576101da565b8063a217fddf1461052c578063a22cb4651461054a578063b88d4fde14610566578063c87b56dd14610582576101da565b806370a08231116100de57806370a082311461047e5780637c500c22146104ae57806391d14854146104de57806395d89b411461050e576101da565b80636352211e146104005780636d43ecc6146104305780636d7222d61461044e576101da565b80631c80d0681161017c5780632f2ff15d1161014b5780632f2ff15d1461039057806336568abe146103ac5780633d218a52146103c857806342842e0e146103e4576101da565b80631c80d068146102f55780631d5ccd9b1461031157806323b872dd14610344578063248a9ca314610360576101da565b8063081812fc116101b8578063081812fc1461025d578063095ea7b31461028d57806313af4035146102a9578063150b7a02146102c5576101da565b806301ffc9a7146101df578063025e7c271461020f57806306fdde031461023f575b600080fd5b6101f960048036038101906101f4919061332d565b61064c565b6040516102069190613e99565b60405180910390f35b61022960048036038101906102249190613442565b61065e565b6040516102369190613e32565b60405180910390f35b61024761069d565b6040516102549190613eea565b60405180910390f35b61027760048036038101906102729190613442565b61072f565b6040516102849190613e32565b60405180910390f35b6102a760048036038101906102a2919061328c565b6107b4565b005b6102c360048036038101906102be9190613121565b6108cc565b005b6102df60048036038101906102da91906131d5565b610984565b6040516102ec9190613ecf565b60405180910390f35b61030f600480360381019061030a919061346b565b610998565b005b61032b60048036038101906103269190613442565b610a04565b60405161033b9493929190613f0c565b60405180910390f35b61035e60048036038101906103599190613186565b610c54565b005b61037a600480360381019061037591906132c8565b610cb4565b6040516103879190613eb4565b60405180910390f35b6103aa60048036038101906103a591906132f1565b610cd4565b005b6103c660048036038101906103c191906132f1565b610cfd565b005b6103e260048036038101906103dd91906134a7565b610d80565b005b6103fe60048036038101906103f99190613186565b6110e0565b005b61041a60048036038101906104159190613442565b611100565b6040516104279190613e32565b60405180910390f35b6104386111b2565b6040516104459190613e32565b60405180910390f35b6104686004803603810190610463919061337f565b6111d8565b60405161047591906141ad565b60405180910390f35b61049860048036038101906104939190613121565b61131e565b6040516104a591906141ad565b60405180910390f35b6104c860048036038101906104c391906134fb565b6113d6565b6040516104d59190613e99565b60405180910390f35b6104f860048036038101906104f391906132f1565b61175c565b6040516105059190613e99565b60405180910390f35b6105166117c7565b6040516105239190613eea565b60405180910390f35b610534611859565b6040516105419190613eb4565b60405180910390f35b610564600480360381019061055f9190613250565b611860565b005b610580600480360381019061057b91906131d5565b6119e1565b005b61059c60048036038101906105979190613442565b611a43565b6040516105a99190613eea565b60405180910390f35b6105ba611b95565b6040516105c791906141ad565b60405180910390f35b6105ea60048036038101906105e591906132f1565b611b9b565b005b6106066004803603810190610601919061314a565b611bc4565b6040516106139190613e99565b60405180910390f35b61063660048036038101906106319190613121565b611c58565b6040516106439190613e99565b60405180910390f35b600061065782611c78565b9050919050565b600b818154811061066e57600080fd5b906000526020600020016000915054906101000a900473ffffffffffffffffffffffffffffffffffffffff1681565b6060600080546106ac9061449b565b80601f01602080910402602001604051908101604052809291908181526020018280546106d89061449b565b80156107255780601f106106fa57610100808354040283529160200191610725565b820191906000526020600020905b81548152906001019060200180831161070857829003601f168201915b5050505050905090565b600061073a82611cf2565b610779576040517f08c379a0000000000000000000000000000000000000000000000000000000008152600401610770906140ed565b60405180910390fd5b6004600083815260200190815260200160002060009054906101000a900473ffffffffffffffffffffffffffffffffffffffff169050919050565b60006107bf82611100565b90508073ffffffffffffffffffffffffffffffffffffffff168373ffffffffffffffffffffffffffffffffffffffff161415610830576040517f08c379a00000000000000000000000000000000000000000000000000000000081526004016108279061414d565b60405180910390fd5b8073ffffffffffffffffffffffffffffffffffffffff1661084f611d5e565b73ffffffffffffffffffffffffffffffffffffffff16148061087e575061087d81610878611d5e565b611bc4565b5b6108bd576040517f08c379a00000000000000000000000000000000000000000000000000000000081526004016108b49061402d565b60405180910390fd5b6108c78383611d66565b505050565b60011515600c60003373ffffffffffffffffffffffffffffffffffffffff1673ffffffffffffffffffffffffffffffffffffffff16815260200190815260200160002060009054906101000a900460ff1615151461092957600080fd5b6001600c60008373ffffffffffffffffffffffffffffffffffffffff1673ffffffffffffffffffffffffffffffffffffffff16815260200190815260200160002060006101000a81548160ff02191690831515021790555050565b600063150b7a0260e01b9050949350505050565b60011515600c60003373ffffffffffffffffffffffffffffffffffffffff1673ffffffffffffffffffffffffffffffffffffffff16815260200190815260200160002060009054906101000a900460ff161515146109f557600080fd5b610a003382846110e0565b5050565b600a602052806000526040600020600091509050806000018054610a279061449b565b80601f0160208091040260200160405190810160405280929190818152602001828054610a539061449b565b8015610aa05780601f10610a7557610100808354040283529160200191610aa0565b820191906000526020600020905b815481529060010190602001808311610a8357829003601f168201915b505050505090806001018054610ab59061449b565b80601f0160208091040260200160405190810160405280929190818152602001828054610ae19061449b565b8015610b2e5780601f10610b0357610100808354040283529160200191610b2e565b820191906000526020600020905b815481529060010190602001808311610b1157829003601f168201915b505050505090806002018054610b439061449b565b80601f0160208091040260200160405190810160405280929190818152602001828054610b6f9061449b565b8015610bbc5780601f10610b9157610100808354040283529160200191610bbc565b820191906000526020600020905b815481529060010190602001808311610b9f57829003601f168201915b505050505090806003018054610bd19061449b565b80601f0160208091040260200160405190810160405280929190818152602001828054610bfd9061449b565b8015610c4a5780601f10610c1f57610100808354040283529160200191610c4a565b820191906000526020600020905b815481529060010190602001808311610c2d57829003601f168201915b5050505050905084565b610c65610c5f611d5e565b82611e1f565b610ca4576040517f08c379a0000000000000000000000000000000000000000000000000000000008152600401610c9b9061416d565b60405180910390fd5b610caf838383611efd565b505050565b600060076000838152602001908152602001600020600101549050919050565b610cdd82610cb4565b610cee81610ce9611d5e565b612159565b610cf883836121f6565b505050565b610d05611d5e565b73ffffffffffffffffffffffffffffffffffffffff168173ffffffffffffffffffffffffffffffffffffffff1614610d72576040517f08c379a0000000000000000000000000000000000000000000000000000000008152600401610d699061418d565b60405180910390fd5b610d7c82826122d7565b5050565b60011515600c60003373ffffffffffffffffffffffffffffffffffffffff1673ffffffffffffffffffffffffffffffffffffffff16815260200190815260200160002060009054906101000a900460ff16151514610ddd57600080fd5b6000600a6000848152602001908152602001600020604051806080016040529081600082018054610e0d9061449b565b80601f0160208091040260200160405190810160405280929190818152602001828054610e399061449b565b8015610e865780601f10610e5b57610100808354040283529160200191610e86565b820191906000526020600020905b815481529060010190602001808311610e6957829003601f168201915b50505050508152602001600182018054610e9f9061449b565b80601f0160208091040260200160405190810160405280929190818152602001828054610ecb9061449b565b8015610f185780601f10610eed57610100808354040283529160200191610f18565b820191906000526020600020905b815481529060010190602001808311610efb57829003601f168201915b50505050508152602001600282018054610f319061449b565b80601f0160208091040260200160405190810160405280929190818152602001828054610f5d9061449b565b8015610faa5780601f10610f7f57610100808354040283529160200191610faa565b820191906000526020600020905b815481529060010190602001808311610f8d57829003601f168201915b50505050508152602001600382018054610fc39061449b565b80601f0160208091040260200160405190810160405280929190818152602001828054610fef9061449b565b801561103c5780601f106110115761010080835404028352916020019161103c565b820191906000526020600020905b81548152906001019060200180831161101f57829003601f168201915b505050505081525050905081816060018190525080600a60008581526020019081526020016000206000820151816000019080519060200190611080929190612f30565b50602082015181600101908051906020019061109d929190612f30565b5060408201518160020190805190602001906110ba929190612f30565b5060608201518160030190805190602001906110d7929190612f30565b50905050505050565b6110fb838383604051806020016040528060008152506119e1565b505050565b6000806002600084815260200190815260200160002060009054906101000a900473ffffffffffffffffffffffffffffffffffffffff169050600073ffffffffffffffffffffffffffffffffffffffff168173ffffffffffffffffffffffffffffffffffffffff1614156111a9576040517f08c379a00000000000000000000000000000000000000000000000000000000081526004016111a09061406d565b60405180910390fd5b80915050919050565b600960009054906101000a900473ffffffffffffffffffffffffffffffffffffffff1681565b600060011515600c60003373ffffffffffffffffffffffffffffffffffffffff1673ffffffffffffffffffffffffffffffffffffffff16815260200190815260200160002060009054906101000a900460ff1615151461123757600080fd5b6001600854611246919061429c565b6008819055506000600854905061125d33826123b9565b61126781846123d7565b604051806080016040528087815260200186815260200185815260200184815250600a600083815260200190815260200160002060008201518160000190805190602001906112b7929190612f30565b5060208201518160010190805190602001906112d4929190612f30565b5060408201518160020190805190602001906112f1929190612f30565b50606082015181600301908051906020019061130e929190612f30565b5090505080915050949350505050565b60008073ffffffffffffffffffffffffffffffffffffffff168273ffffffffffffffffffffffffffffffffffffffff16141561138f576040517f08c379a00000000000000000000000000000000000000000000000000000000081526004016113869061404d565b60405180910390fd5b600360008373ffffffffffffffffffffffffffffffffffffffff1673ffffffffffffffffffffffffffffffffffffffff168152602001908152602001600020549050919050565b600060011515600c60003373ffffffffffffffffffffffffffffffffffffffff1673ffffffffffffffffffffffffffffffffffffffff16815260200190815260200160002060009054906101000a900460ff1615151461143557600080fd5b6000600a60008881526020019081526020016000206040518060800160405290816000820180546114659061449b565b80601f01602080910402602001604051908101604052809291908181526020018280546114919061449b565b80156114de5780601f106114b3576101008083540402835291602001916114de565b820191906000526020600020905b8154815290600101906020018083116114c157829003601f168201915b505050505081526020016001820180546114f79061449b565b80601f01602080910402602001604051908101604052809291908181526020018280546115239061449b565b80156115705780601f1061154557610100808354040283529160200191611570565b820191906000526020600020905b81548152906001019060200180831161155357829003601f168201915b505050505081526020016002820180546115899061449b565b80601f01602080910402602001604051908101604052809291908181526020018280546115b59061449b565b80156116025780601f106115d757610100808354040283529160200191611602565b820191906000526020600020905b8154815290600101906020018083116115e557829003601f168201915b5050505050815260200160038201805461161b9061449b565b80601f01602080910402602001604051908101604052809291908181526020018280546116479061449b565b80156116945780601f1061166957610100808354040283529160200191611694565b820191906000526020600020905b81548152906001019060200180831161167757829003601f168201915b505050505081525050905085816000018190525084816020018190525083816040018190525082816060018190525080600a600089815260200190815260200160002060008201518160000190805190602001906116f3929190612f30565b506020820151816001019080519060200190611710929190612f30565b50604082015181600201908051906020019061172d929190612f30565b50606082015181600301908051906020019061174a929190612f30565b50905050600191505095945050505050565b60006007600084815260200190815260200160002060000160008373ffffffffffffffffffffffffffffffffffffffff1673ffffffffffffffffffffffffffffffffffffffff16815260200190815260200160002060009054906101000a900460ff16905092915050565b6060600180546117d69061449b565b80601f01602080910402602001604051908101604052809291908181526020018280546118029061449b565b801561184f5780601f106118245761010080835404028352916020019161184f565b820191906000526020600020905b81548152906001019060200180831161183257829003601f168201915b5050505050905090565b6000801b81565b611868611d5e565b73ffffffffffffffffffffffffffffffffffffffff168273ffffffffffffffffffffffffffffffffffffffff1614156118d6576040517f08c379a00000000000000000000000000000000000000000000000000000000081526004016118cd90613fed565b60405180910390fd5b80600560006118e3611d5e565b73ffffffffffffffffffffffffffffffffffffffff1673ffffffffffffffffffffffffffffffffffffffff16815260200190815260200160002060008473ffffffffffffffffffffffffffffffffffffffff1673ffffffffffffffffffffffffffffffffffffffff16815260200190815260200160002060006101000a81548160ff0219169083151502179055508173ffffffffffffffffffffffffffffffffffffffff16611990611d5e565b73ffffffffffffffffffffffffffffffffffffffff167f17307eab39ab6107e8899845ad3d59bd9653f200f220920489ca2b5937696c31836040516119d59190613e99565b60405180910390a35050565b6119f26119ec611d5e565b83611e1f565b611a31576040517f08c379a0000000000000000000000000000000000000000000000000000000008152600401611a289061416d565b60405180910390fd5b611a3d8484848461244b565b50505050565b6060611a4e82611cf2565b611a8d576040517f08c379a0000000000000000000000000000000000000000000000000000000008152600401611a84906140cd565b60405180910390fd5b6000600660008481526020019081526020016000208054611aad9061449b565b80601f0160208091040260200160405190810160405280929190818152602001828054611ad99061449b565b8015611b265780601f10611afb57610100808354040283529160200191611b26565b820191906000526020600020905b815481529060010190602001808311611b0957829003601f168201915b505050505090506000611b376124a7565b9050600081511415611b4d578192505050611b90565b600082511115611b82578082604051602001611b6a929190613dd4565b60405160208183030381529060405292505050611b90565b611b8b846124be565b925050505b919050565b60085481565b611ba482610cb4565b611bb581611bb0611d5e565b612159565b611bbf83836122d7565b505050565b6000600560008473ffffffffffffffffffffffffffffffffffffffff1673ffffffffffffffffffffffffffffffffffffffff16815260200190815260200160002060008373ffffffffffffffffffffffffffffffffffffffff1673ffffffffffffffffffffffffffffffffffffffff16815260200190815260200160002060009054906101000a900460ff16905092915050565b600c6020528060005260406000206000915054906101000a900460ff1681565b60007f7965db0b000000000000000000000000000000000000000000000000000000007bffffffffffffffffffffffffffffffffffffffffffffffffffffffff1916827bffffffffffffffffffffffffffffffffffffffffffffffffffffffff19161480611ceb5750611cea82612565565b5b9050919050565b60008073ffffffffffffffffffffffffffffffffffffffff166002600084815260200190815260200160002060009054906101000a900473ffffffffffffffffffffffffffffffffffffffff1673ffffffffffffffffffffffffffffffffffffffff1614159050919050565b600033905090565b816004600083815260200190815260200160002060006101000a81548173ffffffffffffffffffffffffffffffffffffffff021916908373ffffffffffffffffffffffffffffffffffffffff160217905550808273ffffffffffffffffffffffffffffffffffffffff16611dd983611100565b73ffffffffffffffffffffffffffffffffffffffff167f8c5be1e5ebec7d5bd14f71427d1e84f3dd0314c0f7b2291e5b200ac8c7c3b92560405160405180910390a45050565b6000611e2a82611cf2565b611e69576040517f08c379a0000000000000000000000000000000000000000000000000000000008152600401611e609061400d565b60405180910390fd5b6000611e7483611100565b90508073ffffffffffffffffffffffffffffffffffffffff168473ffffffffffffffffffffffffffffffffffffffff161480611ee357508373ffffffffffffffffffffffffffffffffffffffff16611ecb8461072f565b73ffffffffffffffffffffffffffffffffffffffff16145b80611ef45750611ef38185611bc4565b5b91505092915050565b8273ffffffffffffffffffffffffffffffffffffffff16611f1d82611100565b73ffffffffffffffffffffffffffffffffffffffff1614611f73576040517f08c379a0000000000000000000000000000000000000000000000000000000008152600401611f6a9061410d565b60405180910390fd5b600073ffffffffffffffffffffffffffffffffffffffff168273ffffffffffffffffffffffffffffffffffffffff161415611fe3576040517f08c379a0000000000000000000000000000000000000000000000000000000008152600401611fda90613fcd565b60405180910390fd5b611fee838383612647565b611ff9600082611d66565b6001600360008573ffffffffffffffffffffffffffffffffffffffff1673ffffffffffffffffffffffffffffffffffffffff1681526020019081526020016000206000828254612049919061437d565b925050819055506001600360008473ffffffffffffffffffffffffffffffffffffffff1673ffffffffffffffffffffffffffffffffffffffff16815260200190815260200160002060008282546120a0919061429c565b92505081905550816002600083815260200190815260200160002060006101000a81548173ffffffffffffffffffffffffffffffffffffffff021916908373ffffffffffffffffffffffffffffffffffffffff160217905550808273ffffffffffffffffffffffffffffffffffffffff168473ffffffffffffffffffffffffffffffffffffffff167fddf252ad1be2c89b69c2b068fc378daa952ba7f163c4a11628f55a4df523b3ef60405160405180910390a4505050565b612163828261175c565b6121f2576121888173ffffffffffffffffffffffffffffffffffffffff16601461264c565b6121968360001c602061264c565b6040516020016121a7929190613df8565b6040516020818303038152906040526040517f08c379a00000000000000000000000000000000000000000000000000000000081526004016121e99190613eea565b60405180910390fd5b5050565b612200828261175c565b6122d35760016007600084815260200190815260200160002060000160008373ffffffffffffffffffffffffffffffffffffffff1673ffffffffffffffffffffffffffffffffffffffff16815260200190815260200160002060006101000a81548160ff021916908315150217905550612278611d5e565b73ffffffffffffffffffffffffffffffffffffffff168173ffffffffffffffffffffffffffffffffffffffff16837f2f8788117e7eff1d82e926ec794901d17c78024a50270940304540a733656f0d60405160405180910390a45b5050565b6122e1828261175c565b156123b55760006007600084815260200190815260200160002060000160008373ffffffffffffffffffffffffffffffffffffffff1673ffffffffffffffffffffffffffffffffffffffff16815260200190815260200160002060006101000a81548160ff02191690831515021790555061235a611d5e565b73ffffffffffffffffffffffffffffffffffffffff168173ffffffffffffffffffffffffffffffffffffffff16837ff6391f5c32d9c69d2a47ea670b442974b53935d1edc7fd64eb21e047a839171b60405160405180910390a45b5050565b6123d3828260405180602001604052806000815250612946565b5050565b6123e082611cf2565b61241f576040517f08c379a00000000000000000000000000000000000000000000000000000000081526004016124169061408d565b60405180910390fd5b80600660008481526020019081526020016000209080519060200190612446929190612f30565b505050565b612456848484611efd565b612462848484846129a1565b6124a1576040517f08c379a000000000000000000000000000000000000000000000000000000000815260040161249890613f8d565b60405180910390fd5b50505050565b606060405180602001604052806000815250905090565b60606124c982611cf2565b612508576040517f08c379a00000000000000000000000000000000000000000000000000000000081526004016124ff9061412d565b60405180910390fd5b60006125126124a7565b90506000815111612532576040518060200160405280600081525061255d565b8061253c84612b38565b60405160200161254d929190613dd4565b6040516020818303038152906040525b915050919050565b60007f80ac58cd000000000000000000000000000000000000000000000000000000007bffffffffffffffffffffffffffffffffffffffffffffffffffffffff1916827bffffffffffffffffffffffffffffffffffffffffffffffffffffffff1916148061263057507f5b5e139f000000000000000000000000000000000000000000000000000000007bffffffffffffffffffffffffffffffffffffffffffffffffffffffff1916827bffffffffffffffffffffffffffffffffffffffffffffffffffffffff1916145b80612640575061263f82612ce5565b5b9050919050565b505050565b60606000600283600261265f9190614323565b612669919061429c565b67ffffffffffffffff8111156126a8577f4e487b7100000000000000000000000000000000000000000000000000000000600052604160045260246000fd5b6040519080825280601f01601f1916602001820160405280156126da5781602001600182028036833780820191505090505b5090507f300000000000000000000000000000000000000000000000000000000000000081600081518110612738577f4e487b7100000000000000000000000000000000000000000000000000000000600052603260045260246000fd5b60200101907effffffffffffffffffffffffffffffffffffffffffffffffffffffffffffff1916908160001a9053507f7800000000000000000000000000000000000000000000000000000000000000816001815181106127c2577f4e487b7100000000000000000000000000000000000000000000000000000000600052603260045260246000fd5b60200101907effffffffffffffffffffffffffffffffffffffffffffffffffffffffffffff1916908160001a905350600060018460026128029190614323565b61280c919061429c565b90505b60018111156128f8577f3031323334353637383961626364656600000000000000000000000000000000600f861660108110612874577f4e487b7100000000000000000000000000000000000000000000000000000000600052603260045260246000fd5b1a60f81b8282815181106128b1577f4e487b7100000000000000000000000000000000000000000000000000000000600052603260045260246000fd5b60200101907effffffffffffffffffffffffffffffffffffffffffffffffffffffffffffff1916908160001a905350600485901c9450806128f190614471565b905061280f565b506000841461293c576040517f08c379a000000000000000000000000000000000000000000000000000000000815260040161293390613f6d565b60405180910390fd5b8091505092915050565b6129508383612d4f565b61295d60008484846129a1565b61299c576040517f08c379a000000000000000000000000000000000000000000000000000000000815260040161299390613f8d565b60405180910390fd5b505050565b60006129c28473ffffffffffffffffffffffffffffffffffffffff16612f1d565b15612b2b578373ffffffffffffffffffffffffffffffffffffffff1663150b7a026129eb611d5e565b8786866040518563ffffffff1660e01b8152600401612a0d9493929190613e4d565b602060405180830381600087803b158015612a2757600080fd5b505af1925050508015612a5857506040513d601f19601f82011682018060405250810190612a559190613356565b60015b612adb573d8060008114612a88576040519150601f19603f3d011682016040523d82523d6000602084013e612a8d565b606091505b50600081511415612ad3576040517f08c379a0000000000000000000000000000000000000000000000000000000008152600401612aca90613f8d565b60405180910390fd5b805181602001fd5b63150b7a0260e01b7bffffffffffffffffffffffffffffffffffffffffffffffffffffffff1916817bffffffffffffffffffffffffffffffffffffffffffffffffffffffff191614915050612b30565b600190505b949350505050565b60606000821415612b80576040518060400160405280600181526020017f30000000000000000000000000000000000000000000000000000000000000008152509050612ce0565b600082905060005b60008214612bb2578080612b9b906144cd565b915050600a82612bab91906142f2565b9150612b88565b60008167ffffffffffffffff811115612bf4577f4e487b7100000000000000000000000000000000000000000000000000000000600052604160045260246000fd5b6040519080825280601f01601f191660200182016040528015612c265781602001600182028036833780820191505090505b5090505b60008514612cd957600182612c3f919061437d565b9150600a85612c4e9190614516565b6030612c5a919061429c565b60f81b818381518110612c96577f4e487b7100000000000000000000000000000000000000000000000000000000600052603260045260246000fd5b60200101907effffffffffffffffffffffffffffffffffffffffffffffffffffffffffffff1916908160001a905350600a85612cd291906142f2565b9450612c2a565b8093505050505b919050565b60007f01ffc9a7000000000000000000000000000000000000000000000000000000007bffffffffffffffffffffffffffffffffffffffffffffffffffffffff1916827bffffffffffffffffffffffffffffffffffffffffffffffffffffffff1916149050919050565b600073ffffffffffffffffffffffffffffffffffffffff168273ffffffffffffffffffffffffffffffffffffffff161415612dbf576040517f08c379a0000000000000000000000000000000000000000000000000000000008152600401612db6906140ad565b60405180910390fd5b612dc881611cf2565b15612e08576040517f08c379a0000000000000000000000000000000000000000000000000000000008152600401612dff90613fad565b60405180910390fd5b612e1460008383612647565b6001600360008473ffffffffffffffffffffffffffffffffffffffff1673ffffffffffffffffffffffffffffffffffffffff1681526020019081526020016000206000828254612e64919061429c565b92505081905550816002600083815260200190815260200160002060006101000a81548173ffffffffffffffffffffffffffffffffffffffff021916908373ffffffffffffffffffffffffffffffffffffffff160217905550808273ffffffffffffffffffffffffffffffffffffffff16600073ffffffffffffffffffffffffffffffffffffffff167fddf252ad1be2c89b69c2b068fc378daa952ba7f163c4a11628f55a4df523b3ef60405160405180910390a45050565b600080823b905060008111915050919050565b828054612f3c9061449b565b90600052602060002090601f016020900481019282612f5e5760008555612fa5565b82601f10612f7757805160ff1916838001178555612fa5565b82800160010185558215612fa5579182015b82811115612fa4578251825591602001919060010190612f89565b5b509050612fb29190612fb6565b5090565b5b80821115612fcf576000816000905550600101612fb7565b5090565b6000612fe6612fe1846141f9565b6141c8565b905082815260208101848484011115612ffe57600080fd5b61300984828561442f565b509392505050565b600061302461301f84614229565b6141c8565b90508281526020810184848401111561303c57600080fd5b61304784828561442f565b509392505050565b60008135905061305e81614614565b92915050565b6000813590506130738161462b565b92915050565b60008135905061308881614642565b92915050565b60008135905061309d81614659565b92915050565b6000815190506130b281614659565b92915050565b600082601f8301126130c957600080fd5b81356130d9848260208601612fd3565b91505092915050565b600082601f8301126130f357600080fd5b8135613103848260208601613011565b91505092915050565b60008135905061311b81614670565b92915050565b60006020828403121561313357600080fd5b60006131418482850161304f565b91505092915050565b6000806040838503121561315d57600080fd5b600061316b8582860161304f565b925050602061317c8582860161304f565b9150509250929050565b60008060006060848603121561319b57600080fd5b60006131a98682870161304f565b93505060206131ba8682870161304f565b92505060406131cb8682870161310c565b9150509250925092565b600080600080608085870312156131eb57600080fd5b60006131f98782880161304f565b945050602061320a8782880161304f565b935050604061321b8782880161310c565b925050606085013567ffffffffffffffff81111561323857600080fd5b613244878288016130b8565b91505092959194509250565b6000806040838503121561326357600080fd5b60006132718582860161304f565b925050602061328285828601613064565b9150509250929050565b6000806040838503121561329f57600080fd5b60006132ad8582860161304f565b92505060206132be8582860161310c565b9150509250929050565b6000602082840312156132da57600080fd5b60006132e884828501613079565b91505092915050565b6000806040838503121561330457600080fd5b600061331285828601613079565b92505060206133238582860161304f565b9150509250929050565b60006020828403121561333f57600080fd5b600061334d8482850161308e565b91505092915050565b60006020828403121561336857600080fd5b6000613376848285016130a3565b91505092915050565b6000806000806080858703121561339557600080fd5b600085013567ffffffffffffffff8111156133af57600080fd5b6133bb878288016130e2565b945050602085013567ffffffffffffffff8111156133d857600080fd5b6133e4878288016130e2565b935050604085013567ffffffffffffffff81111561340157600080fd5b61340d878288016130e2565b925050606085013567ffffffffffffffff81111561342a57600080fd5b613436878288016130e2565b91505092959194509250565b60006020828403121561345457600080fd5b60006134628482850161310c565b91505092915050565b6000806040838503121561347e57600080fd5b600061348c8582860161310c565b925050602061349d8582860161304f565b9150509250929050565b600080604083850312156134ba57600080fd5b60006134c88582860161310c565b925050602083013567ffffffffffffffff8111156134e557600080fd5b6134f1858286016130e2565b9150509250929050565b600080600080600060a0868803121561351357600080fd5b60006135218882890161310c565b955050602086013567ffffffffffffffff81111561353e57600080fd5b61354a888289016130e2565b945050604086013567ffffffffffffffff81111561356757600080fd5b613573888289016130e2565b935050606086013567ffffffffffffffff81111561359057600080fd5b61359c888289016130e2565b925050608086013567ffffffffffffffff8111156135b957600080fd5b6135c5888289016130e2565b9150509295509295909350565b6135db816143b1565b82525050565b6135ea816143c3565b82525050565b6135f9816143cf565b82525050565b613608816143d9565b82525050565b600061361982614259565b613623818561426f565b935061363381856020860161443e565b61363c81614603565b840191505092915050565b600061365282614264565b61365c8185614280565b935061366c81856020860161443e565b61367581614603565b840191505092915050565b600061368b82614264565b6136958185614291565b93506136a581856020860161443e565b80840191505092915050565b60006136be602083614280565b91507f537472696e67733a20686578206c656e67746820696e73756666696369656e746000830152602082019050919050565b60006136fe603283614280565b91507f4552433732313a207472616e7366657220746f206e6f6e20455243373231526560008301527f63656976657220696d706c656d656e74657200000000000000000000000000006020830152604082019050919050565b6000613764601c83614280565b91507f4552433732313a20746f6b656e20616c7265616479206d696e746564000000006000830152602082019050919050565b60006137a4602483614280565b91507f4552433732313a207472616e7366657220746f20746865207a65726f2061646460008301527f72657373000000000000000000000000000000000000000000000000000000006020830152604082019050919050565b600061380a601983614280565b91507f4552433732313a20617070726f766520746f2063616c6c6572000000000000006000830152602082019050919050565b600061384a602c83614280565b91507f4552433732313a206f70657261746f7220717565727920666f72206e6f6e657860008301527f697374656e7420746f6b656e00000000000000000000000000000000000000006020830152604082019050919050565b60006138b0603883614280565b91507f4552433732313a20617070726f76652063616c6c6572206973206e6f74206f7760008301527f6e6572206e6f7220617070726f76656420666f7220616c6c00000000000000006020830152604082019050919050565b6000613916602a83614280565b91507f4552433732313a2062616c616e636520717565727920666f7220746865207a6560008301527f726f2061646472657373000000000000000000000000000000000000000000006020830152604082019050919050565b600061397c602983614280565b91507f4552433732313a206f776e657220717565727920666f72206e6f6e657869737460008301527f656e7420746f6b656e00000000000000000000000000000000000000000000006020830152604082019050919050565b60006139e2602e83614280565b91507f45524337323155524953746f726167653a2055524920736574206f66206e6f6e60008301527f6578697374656e7420746f6b656e0000000000000000000000000000000000006020830152604082019050919050565b6000613a48602083614280565b91507f4552433732313a206d696e7420746f20746865207a65726f20616464726573736000830152602082019050919050565b6000613a88603183614280565b91507f45524337323155524953746f726167653a2055524920717565727920666f722060008301527f6e6f6e6578697374656e7420746f6b656e0000000000000000000000000000006020830152604082019050919050565b6000613aee602c83614280565b91507f4552433732313a20617070726f76656420717565727920666f72206e6f6e657860008301527f697374656e7420746f6b656e00000000000000000000000000000000000000006020830152604082019050919050565b6000613b54602983614280565b91507f4552433732313a207472616e73666572206f6620746f6b656e2074686174206960008301527f73206e6f74206f776e00000000000000000000000000000000000000000000006020830152604082019050919050565b6000613bba602f83614280565b91507f4552433732314d657461646174613a2055524920717565727920666f72206e6f60008301527f6e6578697374656e7420746f6b656e00000000000000000000000000000000006020830152604082019050919050565b6000613c20602183614280565b91507f4552433732313a20617070726f76616c20746f2063757272656e74206f776e6560008301527f72000000000000000000000000000000000000000000000000000000000000006020830152604082019050919050565b6000613c86603183614280565b91507f4552433732313a207472616e736665722063616c6c6572206973206e6f74206f60008301527f776e6572206e6f7220617070726f7665640000000000000000000000000000006020830152604082019050919050565b6000613cec601783614291565b91507f416363657373436f6e74726f6c3a206163636f756e74200000000000000000006000830152601782019050919050565b6000613d2c601183614291565b91507f206973206d697373696e6720726f6c65200000000000000000000000000000006000830152601182019050919050565b6000613d6c602f83614280565b91507f416363657373436f6e74726f6c3a2063616e206f6e6c792072656e6f756e636560008301527f20726f6c657320666f722073656c6600000000000000000000000000000000006020830152604082019050919050565b613dce81614425565b82525050565b6000613de08285613680565b9150613dec8284613680565b91508190509392505050565b6000613e0382613cdf565b9150613e0f8285613680565b9150613e1a82613d1f565b9150613e268284613680565b91508190509392505050565b6000602082019050613e4760008301846135d2565b92915050565b6000608082019050613e6260008301876135d2565b613e6f60208301866135d2565b613e7c6040830185613dc5565b8181036060830152613e8e818461360e565b905095945050505050565b6000602082019050613eae60008301846135e1565b92915050565b6000602082019050613ec960008301846135f0565b92915050565b6000602082019050613ee460008301846135ff565b92915050565b60006020820190508181036000830152613f048184613647565b905092915050565b60006080820190508181036000830152613f268187613647565b90508181036020830152613f3a8186613647565b90508181036040830152613f4e8185613647565b90508181036060830152613f628184613647565b905095945050505050565b60006020820190508181036000830152613f86816136b1565b9050919050565b60006020820190508181036000830152613fa6816136f1565b9050919050565b60006020820190508181036000830152613fc681613757565b9050919050565b60006020820190508181036000830152613fe681613797565b9050919050565b60006020820190508181036000830152614006816137fd565b9050919050565b600060208201905081810360008301526140268161383d565b9050919050565b60006020820190508181036000830152614046816138a3565b9050919050565b6000602082019050818103600083015261406681613909565b9050919050565b600060208201905081810360008301526140868161396f565b9050919050565b600060208201905081810360008301526140a6816139d5565b9050919050565b600060208201905081810360008301526140c681613a3b565b9050919050565b600060208201905081810360008301526140e681613a7b565b9050919050565b6000602082019050818103600083015261410681613ae1565b9050919050565b6000602082019050818103600083015261412681613b47565b9050919050565b6000602082019050818103600083015261414681613bad565b9050919050565b6000602082019050818103600083015261416681613c13565b9050919050565b6000602082019050818103600083015261418681613c79565b9050919050565b600060208201905081810360008301526141a681613d5f565b9050919050565b60006020820190506141c26000830184613dc5565b92915050565b6000604051905081810181811067ffffffffffffffff821117156141ef576141ee6145d4565b5b8060405250919050565b600067ffffffffffffffff821115614214576142136145d4565b5b601f19601f8301169050602081019050919050565b600067ffffffffffffffff821115614244576142436145d4565b5b601f19601f8301169050602081019050919050565b600081519050919050565b600081519050919050565b600082825260208201905092915050565b600082825260208201905092915050565b600081905092915050565b60006142a782614425565b91506142b283614425565b9250827fffffffffffffffffffffffffffffffffffffffffffffffffffffffffffffffff038211156142e7576142e6614547565b5b828201905092915050565b60006142fd82614425565b915061430883614425565b92508261431857614317614576565b5b828204905092915050565b600061432e82614425565b915061433983614425565b9250817fffffffffffffffffffffffffffffffffffffffffffffffffffffffffffffffff048311821515161561437257614371614547565b5b828202905092915050565b600061438882614425565b915061439383614425565b9250828210156143a6576143a5614547565b5b828203905092915050565b60006143bc82614405565b9050919050565b60008115159050919050565b6000819050919050565b60007fffffffff0000000000000000000000000000000000000000000000000000000082169050919050565b600073ffffffffffffffffffffffffffffffffffffffff82169050919050565b6000819050919050565b82818337600083830152505050565b60005b8381101561445c578082015181840152602081019050614441565b8381111561446b576000848401525b50505050565b600061447c82614425565b915060008214156144905761448f614547565b5b600182039050919050565b600060028204905060018216806144b357607f821691505b602082108114156144c7576144c66145a5565b5b50919050565b60006144d882614425565b91507fffffffffffffffffffffffffffffffffffffffffffffffffffffffffffffffff82141561450b5761450a614547565b5b600182019050919050565b600061452182614425565b915061452c83614425565b92508261453c5761453b614576565b5b828206905092915050565b7f4e487b7100000000000000000000000000000000000000000000000000000000600052601160045260246000fd5b7f4e487b7100000000000000000000000000000000000000000000000000000000600052601260045260246000fd5b7f4e487b7100000000000000000000000000000000000000000000000000000000600052602260045260246000fd5b7f4e487b7100000000000000000000000000000000000000000000000000000000600052604160045260246000fd5b6000601f19601f8301169050919050565b61461d816143b1565b811461462857600080fd5b50565b614634816143c3565b811461463f57600080fd5b50565b61464b816143cf565b811461465657600080fd5b50565b614662816143d9565b811461466d57600080fd5b50565b61467981614425565b811461468457600080fd5b5056fea26469706673582212207f5458155777ba2bfcaa0b3949efd39d0a2cb87cb34d8c68a9c8ccf0d265e0e564736f6c63430008000033",
  "immutableReferences": {},
  "source": "// SPDX-License-Identifier: MIT\npragma solidity ^0.8.0;\n\nimport \"@openzeppelin/contracts/token/ERC721/extensions/ERC721URIStorage.sol\";\nimport \"@openzeppelin/contracts/utils/Counters.sol\";\nimport \"@openzeppelin/contracts/access/AccessControl.sol\";\nimport \"@openzeppelin/contracts/token/ERC721/IERC721Receiver.sol\";\nimport {SafeMath} from \"./utils/SafeMath.sol\";\n\ncontract AirdropNFT is ERC721URIStorage, IERC721Receiver, AccessControl {\n    using SafeMath for uint256;\n\n    uint256 public tokenCounter;\n    // super admin\n    address public Validator;\n\n    struct Raffle {\n        string tittle;\n        string description;\n        string jpeg;\n        string metaUrl;\n    }\n\n    mapping(uint256 => Raffle) public Raffles;\n    \n    address[] public owners;\n    mapping(address => bool) public ownerByAddress;\n\n    modifier onlyOwner() {\n        require(ownerByAddress[msg.sender] == true);\n        _;\n    }\n\n    constructor() ERC721(\"Altantis\", \"Raffle\") {\n        tokenCounter = 0;\n        _setupRole(DEFAULT_ADMIN_ROLE, _msgSender());\n        \n        ownerByAddress[msg.sender] = true;\n        Validator = msg.sender;\n    }\n\n    function setOwner( address _owner ) public onlyOwner {\n        ownerByAddress[_owner] = true;\n    }\n\n    function createNFT(\n        string memory _tittle,\n        string memory _description,\n        string memory _jpeg,\n        string memory _metaUrl\n    ) public onlyOwner returns (uint256) {\n        tokenCounter = tokenCounter + 1;\n        uint256 newItemId = tokenCounter;\n\n        _safeMint(msg.sender, newItemId);\n        _setTokenURI(newItemId, _metaUrl);\n\n        Raffles[newItemId] = Raffle(\n            _tittle,\n            _description,\n            _jpeg,\n            _metaUrl\n        );\n\n        return newItemId;\n    }\n\n    function modifyNFT(\n        uint256 tokenId,\n        string memory _tittle,\n        string memory _description,\n        string memory _jpeg,\n        string memory _metaUrl\n    ) public onlyOwner returns (bool) {\n        Raffle memory _asset = Raffles[tokenId];\n\n        _asset.tittle = _tittle;\n        _asset.description = _description;\n        _asset.jpeg = _jpeg;\n        _asset.metaUrl = _metaUrl;\n\n        Raffles[tokenId] = _asset;\n        return true;\n    }\n\n    function changeMetaData(\n        uint256 tokenId,\n        string memory _metaUrl\n    ) public onlyOwner {\n        Raffle memory _asset = Raffles[tokenId];\n\n        _asset.metaUrl = _metaUrl;\n        Raffles[tokenId] = _asset;\n    }\n\n    function rewardNFT(\n        uint256 tokenId,\n        address _to\n    ) public onlyOwner {\n        safeTransferFrom(msg.sender, _to, tokenId);\n    }\n\n    function onERC721Received(address, address, uint256, bytes memory) public virtual override returns (bytes4) {\n        return this.onERC721Received.selector;\n    }\n\n    function supportsInterface(bytes4 interfaceId) public view virtual override(ERC721, AccessControl) returns (bool) {\n        return super.supportsInterface(interfaceId);\n    }\n}",
  "sourcePath": "/Users/sagarbehara/Work/AtlantisWorldWeb3/src/contracts/AirdropNFT.sol",
  "compiler": {
    "name": "solc",
    "version": "0.8.0+commit.c7dfd78e.Emscripten.clang"
  },
  "schemaVersion": "3.4.1",
  "updatedAt": "2021-08-14T09:14:14.499Z",
  "networkType": "ethereum",
  "devdoc": {
    "kind": "dev",
    "methods": {
      "approve(address,uint256)": {
        "details": "See {IERC721-approve}."
      },
      "balanceOf(address)": {
        "details": "See {IERC721-balanceOf}."
      },
      "getApproved(uint256)": {
        "details": "See {IERC721-getApproved}."
      },
      "getRoleAdmin(bytes32)": {
        "details": "Returns the admin role that controls `role`. See {grantRole} and {revokeRole}. To change a role's admin, use {_setRoleAdmin}."
      },
      "grantRole(bytes32,address)": {
        "details": "Grants `role` to `account`. If `account` had not been already granted `role`, emits a {RoleGranted} event. Requirements: - the caller must have ``role``'s admin role."
      },
      "hasRole(bytes32,address)": {
        "details": "Returns `true` if `account` has been granted `role`."
      },
      "isApprovedForAll(address,address)": {
        "details": "See {IERC721-isApprovedForAll}."
      },
      "name()": {
        "details": "See {IERC721Metadata-name}."
      },
      "ownerOf(uint256)": {
        "details": "See {IERC721-ownerOf}."
      },
      "renounceRole(bytes32,address)": {
        "details": "Revokes `role` from the calling account. Roles are often managed via {grantRole} and {revokeRole}: this function's purpose is to provide a mechanism for accounts to lose their privileges if they are compromised (such as when a trusted device is misplaced). If the calling account had been granted `role`, emits a {RoleRevoked} event. Requirements: - the caller must be `account`."
      },
      "revokeRole(bytes32,address)": {
        "details": "Revokes `role` from `account`. If `account` had been granted `role`, emits a {RoleRevoked} event. Requirements: - the caller must have ``role``'s admin role."
      },
      "safeTransferFrom(address,address,uint256)": {
        "details": "See {IERC721-safeTransferFrom}."
      },
      "safeTransferFrom(address,address,uint256,bytes)": {
        "details": "See {IERC721-safeTransferFrom}."
      },
      "setApprovalForAll(address,bool)": {
        "details": "See {IERC721-setApprovalForAll}."
      },
      "symbol()": {
        "details": "See {IERC721Metadata-symbol}."
      },
      "tokenURI(uint256)": {
        "details": "See {IERC721Metadata-tokenURI}."
      },
      "transferFrom(address,address,uint256)": {
        "details": "See {IERC721-transferFrom}."
      }
    },
    "version": 1
  },
  "userdoc": {
    "kind": "user",
    "methods": {},
    "version": 1
  }
}