{
  "contractName": "Assets",
  "abi": [
    {
      "inputs": [],
      "stateMutability": "nonpayable",
      "type": "constructor"
    },
    {
      "anonymous": false,
      "inputs": [
        {
          "indexed": true,
          "internalType": "address",
          "name": "owner",
          "type": "address"
        },
        {
          "indexed": true,
          "internalType": "address",
          "name": "approved",
          "type": "address"
        },
        {
          "indexed": true,
          "internalType": "uint256",
          "name": "tokenId",
          "type": "uint256"
        }
      ],
      "name": "Approval",
      "type": "event"
    },
    {
      "anonymous": false,
      "inputs": [
        {
          "indexed": true,
          "internalType": "address",
          "name": "owner",
          "type": "address"
        },
        {
          "indexed": true,
          "internalType": "address",
          "name": "operator",
          "type": "address"
        },
        {
          "indexed": false,
          "internalType": "bool",
          "name": "approved",
          "type": "bool"
        }
      ],
      "name": "ApprovalForAll",
      "type": "event"
    },
    {
      "anonymous": false,
      "inputs": [
        {
          "indexed": true,
          "internalType": "bytes32",
          "name": "role",
          "type": "bytes32"
        },
        {
          "indexed": true,
          "internalType": "bytes32",
          "name": "previousAdminRole",
          "type": "bytes32"
        },
        {
          "indexed": true,
          "internalType": "bytes32",
          "name": "newAdminRole",
          "type": "bytes32"
        }
      ],
      "name": "RoleAdminChanged",
      "type": "event"
    },
    {
      "anonymous": false,
      "inputs": [
        {
          "indexed": true,
          "internalType": "bytes32",
          "name": "role",
          "type": "bytes32"
        },
        {
          "indexed": true,
          "internalType": "address",
          "name": "account",
          "type": "address"
        },
        {
          "indexed": true,
          "internalType": "address",
          "name": "sender",
          "type": "address"
        }
      ],
      "name": "RoleGranted",
      "type": "event"
    },
    {
      "anonymous": false,
      "inputs": [
        {
          "indexed": true,
          "internalType": "bytes32",
          "name": "role",
          "type": "bytes32"
        },
        {
          "indexed": true,
          "internalType": "address",
          "name": "account",
          "type": "address"
        },
        {
          "indexed": true,
          "internalType": "address",
          "name": "sender",
          "type": "address"
        }
      ],
      "name": "RoleRevoked",
      "type": "event"
    },
    {
      "anonymous": false,
      "inputs": [
        {
          "indexed": true,
          "internalType": "address",
          "name": "from",
          "type": "address"
        },
        {
          "indexed": true,
          "internalType": "address",
          "name": "to",
          "type": "address"
        },
        {
          "indexed": true,
          "internalType": "uint256",
          "name": "tokenId",
          "type": "uint256"
        }
      ],
      "name": "Transfer",
      "type": "event"
    },
    {
      "inputs": [
        {
          "internalType": "uint256",
          "name": "",
          "type": "uint256"
        }
      ],
      "name": "AssetNfts",
      "outputs": [
        {
          "internalType": "uint256",
          "name": "id",
          "type": "uint256"
        },
        {
          "internalType": "string",
          "name": "name",
          "type": "string"
        },
        {
          "internalType": "string",
          "name": "ipfsHash",
          "type": "string"
        },
        {
          "internalType": "address",
          "name": "owner",
          "type": "address"
        },
        {
          "internalType": "uint256",
          "name": "price",
          "type": "uint256"
        },
        {
          "internalType": "bool",
          "name": "authenticate",
          "type": "bool"
        },
        {
          "internalType": "bool",
          "name": "collateralLocked",
          "type": "bool"
        },
        {
          "internalType": "bool",
          "name": "liquidityRemoved",
          "type": "bool"
        },
        {
          "internalType": "uint256",
          "name": "totalStake",
          "type": "uint256"
        }
      ],
      "stateMutability": "view",
      "type": "function",
      "constant": true
    },
    {
      "inputs": [],
      "name": "DEFAULT_ADMIN_ROLE",
      "outputs": [
        {
          "internalType": "bytes32",
          "name": "",
          "type": "bytes32"
        }
      ],
      "stateMutability": "view",
      "type": "function",
      "constant": true
    },
    {
      "inputs": [],
      "name": "Validator",
      "outputs": [
        {
          "internalType": "address",
          "name": "",
          "type": "address"
        }
      ],
      "stateMutability": "view",
      "type": "function",
      "constant": true
    },
    {
      "inputs": [
        {
          "internalType": "address",
          "name": "to",
          "type": "address"
        },
        {
          "internalType": "uint256",
          "name": "tokenId",
          "type": "uint256"
        }
      ],
      "name": "approve",
      "outputs": [],
      "stateMutability": "nonpayable",
      "type": "function"
    },
    {
      "inputs": [
        {
          "internalType": "address",
          "name": "owner",
          "type": "address"
        }
      ],
      "name": "balanceOf",
      "outputs": [
        {
          "internalType": "uint256",
          "name": "",
          "type": "uint256"
        }
      ],
      "stateMutability": "view",
      "type": "function",
      "constant": true
    },
    {
      "inputs": [
        {
          "internalType": "address",
          "name": "",
          "type": "address"
        }
      ],
      "name": "deposit",
      "outputs": [
        {
          "internalType": "uint256",
          "name": "",
          "type": "uint256"
        }
      ],
      "stateMutability": "view",
      "type": "function",
      "constant": true
    },
    {
      "inputs": [
        {
          "internalType": "uint256",
          "name": "tokenId",
          "type": "uint256"
        }
      ],
      "name": "getApproved",
      "outputs": [
        {
          "internalType": "address",
          "name": "",
          "type": "address"
        }
      ],
      "stateMutability": "view",
      "type": "function",
      "constant": true
    },
    {
      "inputs": [
        {
          "internalType": "bytes32",
          "name": "role",
          "type": "bytes32"
        }
      ],
      "name": "getRoleAdmin",
      "outputs": [
        {
          "internalType": "bytes32",
          "name": "",
          "type": "bytes32"
        }
      ],
      "stateMutability": "view",
      "type": "function",
      "constant": true
    },
    {
      "inputs": [
        {
          "internalType": "bytes32",
          "name": "role",
          "type": "bytes32"
        },
        {
          "internalType": "address",
          "name": "account",
          "type": "address"
        }
      ],
      "name": "grantRole",
      "outputs": [],
      "stateMutability": "nonpayable",
      "type": "function"
    },
    {
      "inputs": [
        {
          "internalType": "bytes32",
          "name": "role",
          "type": "bytes32"
        },
        {
          "internalType": "address",
          "name": "account",
          "type": "address"
        }
      ],
      "name": "hasRole",
      "outputs": [
        {
          "internalType": "bool",
          "name": "",
          "type": "bool"
        }
      ],
      "stateMutability": "view",
      "type": "function",
      "constant": true
    },
    {
      "inputs": [
        {
          "internalType": "address",
          "name": "owner",
          "type": "address"
        },
        {
          "internalType": "address",
          "name": "operator",
          "type": "address"
        }
      ],
      "name": "isApprovedForAll",
      "outputs": [
        {
          "internalType": "bool",
          "name": "",
          "type": "bool"
        }
      ],
      "stateMutability": "view",
      "type": "function",
      "constant": true
    },
    {
      "inputs": [],
      "name": "name",
      "outputs": [
        {
          "internalType": "string",
          "name": "",
          "type": "string"
        }
      ],
      "stateMutability": "view",
      "type": "function",
      "constant": true
    },
    {
      "inputs": [
        {
          "internalType": "address",
          "name": "",
          "type": "address"
        }
      ],
      "name": "ownerByAddress",
      "outputs": [
        {
          "internalType": "bool",
          "name": "",
          "type": "bool"
        }
      ],
      "stateMutability": "view",
      "type": "function",
      "constant": true
    },
    {
      "inputs": [
        {
          "internalType": "uint256",
          "name": "tokenId",
          "type": "uint256"
        }
      ],
      "name": "ownerOf",
      "outputs": [
        {
          "internalType": "address",
          "name": "",
          "type": "address"
        }
      ],
      "stateMutability": "view",
      "type": "function",
      "constant": true
    },
    {
      "inputs": [
        {
          "internalType": "uint256",
          "name": "",
          "type": "uint256"
        }
      ],
      "name": "owners",
      "outputs": [
        {
          "internalType": "address",
          "name": "",
          "type": "address"
        }
      ],
      "stateMutability": "view",
      "type": "function",
      "constant": true
    },
    {
      "inputs": [
        {
          "internalType": "bytes32",
          "name": "role",
          "type": "bytes32"
        },
        {
          "internalType": "address",
          "name": "account",
          "type": "address"
        }
      ],
      "name": "renounceRole",
      "outputs": [],
      "stateMutability": "nonpayable",
      "type": "function"
    },
    {
      "inputs": [
        {
          "internalType": "bytes32",
          "name": "role",
          "type": "bytes32"
        },
        {
          "internalType": "address",
          "name": "account",
          "type": "address"
        }
      ],
      "name": "revokeRole",
      "outputs": [],
      "stateMutability": "nonpayable",
      "type": "function"
    },
    {
      "inputs": [
        {
          "internalType": "address",
          "name": "from",
          "type": "address"
        },
        {
          "internalType": "address",
          "name": "to",
          "type": "address"
        },
        {
          "internalType": "uint256",
          "name": "tokenId",
          "type": "uint256"
        }
      ],
      "name": "safeTransferFrom",
      "outputs": [],
      "stateMutability": "nonpayable",
      "type": "function"
    },
    {
      "inputs": [
        {
          "internalType": "address",
          "name": "from",
          "type": "address"
        },
        {
          "internalType": "address",
          "name": "to",
          "type": "address"
        },
        {
          "internalType": "uint256",
          "name": "tokenId",
          "type": "uint256"
        },
        {
          "internalType": "bytes",
          "name": "_data",
          "type": "bytes"
        }
      ],
      "name": "safeTransferFrom",
      "outputs": [],
      "stateMutability": "nonpayable",
      "type": "function"
    },
    {
      "inputs": [
        {
          "internalType": "address",
          "name": "operator",
          "type": "address"
        },
        {
          "internalType": "bool",
          "name": "approved",
          "type": "bool"
        }
      ],
      "name": "setApprovalForAll",
      "outputs": [],
      "stateMutability": "nonpayable",
      "type": "function"
    },
    {
      "inputs": [],
      "name": "symbol",
      "outputs": [
        {
          "internalType": "string",
          "name": "",
          "type": "string"
        }
      ],
      "stateMutability": "view",
      "type": "function",
      "constant": true
    },
    {
      "inputs": [],
      "name": "tokenCounter",
      "outputs": [
        {
          "internalType": "uint256",
          "name": "",
          "type": "uint256"
        }
      ],
      "stateMutability": "view",
      "type": "function",
      "constant": true
    },
    {
      "inputs": [
        {
          "internalType": "uint256",
          "name": "tokenId",
          "type": "uint256"
        }
      ],
      "name": "tokenURI",
      "outputs": [
        {
          "internalType": "string",
          "name": "",
          "type": "string"
        }
      ],
      "stateMutability": "view",
      "type": "function",
      "constant": true
    },
    {
      "inputs": [
        {
          "internalType": "address",
          "name": "from",
          "type": "address"
        },
        {
          "internalType": "address",
          "name": "to",
          "type": "address"
        },
        {
          "internalType": "uint256",
          "name": "tokenId",
          "type": "uint256"
        }
      ],
      "name": "transferFrom",
      "outputs": [],
      "stateMutability": "nonpayable",
      "type": "function"
    },
    {
      "inputs": [
        {
          "internalType": "address",
          "name": "_owner",
          "type": "address"
        }
      ],
      "name": "setOwner",
      "outputs": [],
      "stateMutability": "nonpayable",
      "type": "function"
    },
    {
      "inputs": [
        {
          "internalType": "string",
          "name": "_name",
          "type": "string"
        },
        {
          "internalType": "uint256",
          "name": "_price",
          "type": "uint256"
        },
        {
          "internalType": "string",
          "name": "tokenURI",
          "type": "string"
        }
      ],
      "name": "createCollectible",
      "outputs": [
        {
          "internalType": "uint256",
          "name": "",
          "type": "uint256"
        }
      ],
      "stateMutability": "nonpayable",
      "type": "function"
    },
    {
      "inputs": [
        {
          "internalType": "uint256",
          "name": "tokenId",
          "type": "uint256"
        },
        {
          "internalType": "string",
          "name": "name",
          "type": "string"
        },
        {
          "internalType": "string",
          "name": "ipfsHash",
          "type": "string"
        },
        {
          "internalType": "address",
          "name": "owner",
          "type": "address"
        },
        {
          "internalType": "uint256",
          "name": "price",
          "type": "uint256"
        },
        {
          "internalType": "bool",
          "name": "authenticate",
          "type": "bool"
        },
        {
          "internalType": "bool",
          "name": "collateralLocked",
          "type": "bool"
        },
        {
          "internalType": "bool",
          "name": "liquidityRemoved",
          "type": "bool"
        },
        {
          "internalType": "uint256",
          "name": "totalStake",
          "type": "uint256"
        }
      ],
      "name": "modifyCollectable",
      "outputs": [
        {
          "internalType": "bool",
          "name": "",
          "type": "bool"
        }
      ],
      "stateMutability": "nonpayable",
      "type": "function"
    },
    {
      "inputs": [
        {
          "internalType": "uint256",
          "name": "tokenId",
          "type": "uint256"
        },
        {
          "internalType": "bool",
          "name": "authencity",
          "type": "bool"
        }
      ],
      "name": "authenticateAnAsset",
      "outputs": [],
      "stateMutability": "nonpayable",
      "type": "function"
    },
    {
      "inputs": [
        {
          "internalType": "uint256",
          "name": "tokenId",
          "type": "uint256"
        },
        {
          "internalType": "string",
          "name": "ipfsHash",
          "type": "string"
        }
      ],
      "name": "changeMetaData",
      "outputs": [],
      "stateMutability": "nonpayable",
      "type": "function"
    },
    {
      "inputs": [
        {
          "internalType": "address",
          "name": "",
          "type": "address"
        },
        {
          "internalType": "address",
          "name": "",
          "type": "address"
        },
        {
          "internalType": "uint256",
          "name": "",
          "type": "uint256"
        },
        {
          "internalType": "bytes",
          "name": "",
          "type": "bytes"
        }
      ],
      "name": "onERC721Received",
      "outputs": [
        {
          "internalType": "bytes4",
          "name": "",
          "type": "bytes4"
        }
      ],
      "stateMutability": "nonpayable",
      "type": "function"
    },
    {
      "inputs": [
        {
          "internalType": "bytes4",
          "name": "interfaceId",
          "type": "bytes4"
        }
      ],
      "name": "supportsInterface",
      "outputs": [
        {
          "internalType": "bool",
          "name": "",
          "type": "bool"
        }
      ],
      "stateMutability": "view",
      "type": "function",
      "constant": true
    }
  ],
  "bytecode": "0x60806040523480156200001157600080fd5b506040518060400160405280600881526020017f416c74616e7469730000000000000000000000000000000000000000000000008152506040518060400160405280600681526020017f4173736574730000000000000000000000000000000000000000000000000000815250816000908051906020019062000096929190620002f8565b508060019080519060200190620000af929190620002f8565b5050506000600881905550620000de6000801b620000d26200017d60201b60201c565b6200018560201b60201c565b6001600d60003373ffffffffffffffffffffffffffffffffffffffff1673ffffffffffffffffffffffffffffffffffffffff16815260200190815260200160002060006101000a81548160ff02191690831515021790555033600960006101000a81548173ffffffffffffffffffffffffffffffffffffffff021916908373ffffffffffffffffffffffffffffffffffffffff1602179055506200040d565b600033905090565b6200019782826200019b60201b60201c565b5050565b620001ad82826200028d60201b60201c565b620002895760016007600084815260200190815260200160002060000160008373ffffffffffffffffffffffffffffffffffffffff1673ffffffffffffffffffffffffffffffffffffffff16815260200190815260200160002060006101000a81548160ff0219169083151502179055506200022e6200017d60201b60201c565b73ffffffffffffffffffffffffffffffffffffffff168173ffffffffffffffffffffffffffffffffffffffff16837f2f8788117e7eff1d82e926ec794901d17c78024a50270940304540a733656f0d60405160405180910390a45b5050565b60006007600084815260200190815260200160002060000160008373ffffffffffffffffffffffffffffffffffffffff1673ffffffffffffffffffffffffffffffffffffffff16815260200190815260200160002060009054906101000a900460ff16905092915050565b8280546200030690620003a8565b90600052602060002090601f0160209004810192826200032a576000855562000376565b82601f106200034557805160ff191683800117855562000376565b8280016001018555821562000376579182015b828111156200037557825182559160200191906001019062000358565b5b50905062000385919062000389565b5090565b5b80821115620003a45760008160009055506001016200038a565b5090565b60006002820490506001821680620003c157607f821691505b60208210811415620003d857620003d7620003de565b5b50919050565b7f4e487b7100000000000000000000000000000000000000000000000000000000600052602260045260246000fd5b614b3d806200041d6000396000f3fe608060405234801561001057600080fd5b50600436106101e55760003560e01c8063510112641161010f578063a22cb465116100a2578063d547741f11610071578063d547741f146105e0578063e985e9c5146105fc578063eb6b192f1461062c578063f340fa011461065c576101e5565b8063a22cb4651461055a578063b88d4fde14610576578063c87b56dd14610592578063d082e381146105c2576101e5565b806391d14854116100de57806391d14854146104d257806395d89b4114610502578063988788de14610520578063a217fddf1461053c576101e5565b806351011264146104245780636352211e146104545780636d43ecc61461048457806370a08231146104a2576101e5565b806323b872dd1161018757806333b2e9ce1161015657806333b2e9ce1461039857806336568abe146103d05780633d218a52146103ec57806342842e0e14610408576101e5565b806323b872dd14610300578063248a9ca31461031c5780632f2ff15d1461034c5780633143bc3114610368576101e5565b8063081812fc116101c3578063081812fc14610268578063095ea7b31461029857806313af4035146102b4578063150b7a02146102d0576101e5565b806301ffc9a7146101ea578063025e7c271461021a57806306fdde031461024a575b600080fd5b61020460048036038101906101ff9190613798565b61068c565b60405161021191906142df565b60405180910390f35b610234600480360381019061022f9190613869565b61069e565b6040516102419190614278565b60405180910390f35b6102526106dd565b60405161025f9190614330565b60405180910390f35b610282600480360381019061027d9190613869565b61076f565b60405161028f9190614278565b60405180910390f35b6102b260048036038101906102ad91906136f7565b6107f4565b005b6102ce60048036038101906102c9919061358c565b61090c565b005b6102ea60048036038101906102e59190613640565b6109c4565b6040516102f79190614315565b60405180910390f35b61031a600480360381019061031591906135f1565b6109d8565b005b61033660048036038101906103319190613733565b610a38565b60405161034391906142fa565b60405180910390f35b6103666004803603810190610361919061375c565b610a58565b005b610382600480360381019061037d9190613922565b610a81565b60405161038f91906142df565b60405180910390f35b6103b260048036038101906103ad9190613869565b610ea4565b6040516103c7999897969594939291906145ad565b60405180910390f35b6103ea60048036038101906103e5919061375c565b611049565b005b610406600480360381019061040191906138ce565b6110cc565b005b610422600480360381019061041d91906135f1565b61145a565b005b61043e600480360381019061043991906137ea565b61147a565b60405161044b9190614592565b60405180910390f35b61046e60048036038101906104699190613869565b61168a565b60405161047b9190614278565b60405180910390f35b61048c61173c565b6040516104999190614278565b60405180910390f35b6104bc60048036038101906104b7919061358c565b611762565b6040516104c99190614592565b60405180910390f35b6104ec60048036038101906104e7919061375c565b61181a565b6040516104f991906142df565b60405180910390f35b61050a611885565b6040516105179190614330565b60405180910390f35b61053a60048036038101906105359190613892565b611917565b005b610544611cac565b60405161055191906142fa565b60405180910390f35b610574600480360381019061056f91906136bb565b611cb3565b005b610590600480360381019061058b9190613640565b611e34565b005b6105ac60048036038101906105a79190613869565b611e96565b6040516105b99190614330565b60405180910390f35b6105ca611fe8565b6040516105d79190614592565b60405180910390f35b6105fa60048036038101906105f5919061375c565b611fee565b005b610616600480360381019061061191906135b5565b612017565b60405161062391906142df565b60405180910390f35b6106466004803603810190610641919061358c565b6120ab565b60405161065391906142df565b60405180910390f35b6106766004803603810190610671919061358c565b6120cb565b6040516106839190614592565b60405180910390f35b6000610697826120e3565b9050919050565b600c81815481106106ae57600080fd5b906000526020600020016000915054906101000a900473ffffffffffffffffffffffffffffffffffffffff1681565b6060600080546106ec9061491b565b80601f01602080910402602001604051908101604052809291908181526020018280546107189061491b565b80156107655780601f1061073a57610100808354040283529160200191610765565b820191906000526020600020905b81548152906001019060200180831161074857829003601f168201915b5050505050905090565b600061077a8261215d565b6107b9576040517f08c379a00000000000000000000000000000000000000000000000000000000081526004016107b0906144d2565b60405180910390fd5b6004600083815260200190815260200160002060009054906101000a900473ffffffffffffffffffffffffffffffffffffffff169050919050565b60006107ff8261168a565b90508073ffffffffffffffffffffffffffffffffffffffff168373ffffffffffffffffffffffffffffffffffffffff161415610870576040517f08c379a000000000000000000000000000000000000000000000000000000000815260040161086790614532565b60405180910390fd5b8073ffffffffffffffffffffffffffffffffffffffff1661088f6121c9565b73ffffffffffffffffffffffffffffffffffffffff1614806108be57506108bd816108b86121c9565b612017565b5b6108fd576040517f08c379a00000000000000000000000000000000000000000000000000000000081526004016108f490614412565b60405180910390fd5b61090783836121d1565b505050565b60011515600d60003373ffffffffffffffffffffffffffffffffffffffff1673ffffffffffffffffffffffffffffffffffffffff16815260200190815260200160002060009054906101000a900460ff1615151461096957600080fd5b6001600d60008373ffffffffffffffffffffffffffffffffffffffff1673ffffffffffffffffffffffffffffffffffffffff16815260200190815260200160002060006101000a81548160ff02191690831515021790555050565b600063150b7a0260e01b9050949350505050565b6109e96109e36121c9565b8261228a565b610a28576040517f08c379a0000000000000000000000000000000000000000000000000000000008152600401610a1f90614552565b60405180910390fd5b610a33838383612368565b505050565b600060076000838152602001908152602001600020600101549050919050565b610a6182610a38565b610a7281610a6d6121c9565b6125c4565b610a7c8383612661565b505050565b600060011515600d60003373ffffffffffffffffffffffffffffffffffffffff1673ffffffffffffffffffffffffffffffffffffffff16815260200190815260200160002060009054906101000a900460ff16151514610ae057600080fd5b6000600a60008c81526020019081526020016000206040518061012001604052908160008201548152602001600182018054610b1b9061491b565b80601f0160208091040260200160405190810160405280929190818152602001828054610b479061491b565b8015610b945780601f10610b6957610100808354040283529160200191610b94565b820191906000526020600020905b815481529060010190602001808311610b7757829003601f168201915b50505050508152602001600282018054610bad9061491b565b80601f0160208091040260200160405190810160405280929190818152602001828054610bd99061491b565b8015610c265780601f10610bfb57610100808354040283529160200191610c26565b820191906000526020600020905b815481529060010190602001808311610c0957829003601f168201915b505050505081526020016003820160009054906101000a900473ffffffffffffffffffffffffffffffffffffffff1673ffffffffffffffffffffffffffffffffffffffff1673ffffffffffffffffffffffffffffffffffffffff168152602001600482015481526020016005820160009054906101000a900460ff161515151581526020016005820160019054906101000a900460ff161515151581526020016005820160029054906101000a900460ff16151515158152602001600682015481525050905089816020018190525088816040018190525087816060019073ffffffffffffffffffffffffffffffffffffffff16908173ffffffffffffffffffffffffffffffffffffffff168152505086816080018181525050858160a0019015159081151581525050848160c0019015159081151581525050838160e0019015159081151581525050828161010001818152505080600a60008d8152602001908152602001600020600082015181600001556020820151816001019080519060200190610db592919061339b565b506040820151816002019080519060200190610dd292919061339b565b5060608201518160030160006101000a81548173ffffffffffffffffffffffffffffffffffffffff021916908373ffffffffffffffffffffffffffffffffffffffff1602179055506080820151816004015560a08201518160050160006101000a81548160ff02191690831515021790555060c08201518160050160016101000a81548160ff02191690831515021790555060e08201518160050160026101000a81548160ff021916908315150217905550610100820151816006015590505060019150509998505050505050505050565b600a602052806000526040600020600091509050806000015490806001018054610ecd9061491b565b80601f0160208091040260200160405190810160405280929190818152602001828054610ef99061491b565b8015610f465780601f10610f1b57610100808354040283529160200191610f46565b820191906000526020600020905b815481529060010190602001808311610f2957829003601f168201915b505050505090806002018054610f5b9061491b565b80601f0160208091040260200160405190810160405280929190818152602001828054610f879061491b565b8015610fd45780601f10610fa957610100808354040283529160200191610fd4565b820191906000526020600020905b815481529060010190602001808311610fb757829003601f168201915b5050505050908060030160009054906101000a900473ffffffffffffffffffffffffffffffffffffffff16908060040154908060050160009054906101000a900460ff16908060050160019054906101000a900460ff16908060050160029054906101000a900460ff16908060060154905089565b6110516121c9565b73ffffffffffffffffffffffffffffffffffffffff168173ffffffffffffffffffffffffffffffffffffffff16146110be576040517f08c379a00000000000000000000000000000000000000000000000000000000081526004016110b590614572565b60405180910390fd5b6110c88282612742565b5050565b60011515600d60003373ffffffffffffffffffffffffffffffffffffffff1673ffffffffffffffffffffffffffffffffffffffff16815260200190815260200160002060009054906101000a900460ff1615151461112957600080fd5b6000600a600084815260200190815260200160002060405180610120016040529081600082015481526020016001820180546111649061491b565b80601f01602080910402602001604051908101604052809291908181526020018280546111909061491b565b80156111dd5780601f106111b2576101008083540402835291602001916111dd565b820191906000526020600020905b8154815290600101906020018083116111c057829003601f168201915b505050505081526020016002820180546111f69061491b565b80601f01602080910402602001604051908101604052809291908181526020018280546112229061491b565b801561126f5780601f106112445761010080835404028352916020019161126f565b820191906000526020600020905b81548152906001019060200180831161125257829003601f168201915b505050505081526020016003820160009054906101000a900473ffffffffffffffffffffffffffffffffffffffff1673ffffffffffffffffffffffffffffffffffffffff1673ffffffffffffffffffffffffffffffffffffffff168152602001600482015481526020016005820160009054906101000a900460ff161515151581526020016005820160019054906101000a900460ff161515151581526020016005820160029054906101000a900460ff16151515158152602001600682015481525050905081816040018190525080600a600085815260200190815260200160002060008201518160000155602082015181600101908051906020019061137892919061339b565b50604082015181600201908051906020019061139592919061339b565b5060608201518160030160006101000a81548173ffffffffffffffffffffffffffffffffffffffff021916908373ffffffffffffffffffffffffffffffffffffffff1602179055506080820151816004015560a08201518160050160006101000a81548160ff02191690831515021790555060c08201518160050160016101000a81548160ff02191690831515021790555060e08201518160050160026101000a81548160ff0219169083151502179055506101008201518160060155905050505050565b61147583838360405180602001604052806000815250611e34565b505050565b600060011515600d60003373ffffffffffffffffffffffffffffffffffffffff1673ffffffffffffffffffffffffffffffffffffffff16815260200190815260200160002060009054906101000a900460ff161515146114d957600080fd5b60016008546114e8919061471c565b600881905550600060085490506114ff3382612824565b6115098184612842565b6040518061012001604052808281526020018681526020018481526020013373ffffffffffffffffffffffffffffffffffffffff1681526020018581526020016000151581526020016000151581526020016000151581526020016000815250600a60008381526020019081526020016000206000820151816000015560208201518160010190805190602001906115a292919061339b565b5060408201518160020190805190602001906115bf92919061339b565b5060608201518160030160006101000a81548173ffffffffffffffffffffffffffffffffffffffff021916908373ffffffffffffffffffffffffffffffffffffffff1602179055506080820151816004015560a08201518160050160006101000a81548160ff02191690831515021790555060c08201518160050160016101000a81548160ff02191690831515021790555060e08201518160050160026101000a81548160ff0219169083151502179055506101008201518160060155905050809150509392505050565b6000806002600084815260200190815260200160002060009054906101000a900473ffffffffffffffffffffffffffffffffffffffff169050600073ffffffffffffffffffffffffffffffffffffffff168173ffffffffffffffffffffffffffffffffffffffff161415611733576040517f08c379a000000000000000000000000000000000000000000000000000000000815260040161172a90614452565b60405180910390fd5b80915050919050565b600960009054906101000a900473ffffffffffffffffffffffffffffffffffffffff1681565b60008073ffffffffffffffffffffffffffffffffffffffff168273ffffffffffffffffffffffffffffffffffffffff1614156117d3576040517f08c379a00000000000000000000000000000000000000000000000000000000081526004016117ca90614432565b60405180910390fd5b600360008373ffffffffffffffffffffffffffffffffffffffff1673ffffffffffffffffffffffffffffffffffffffff168152602001908152602001600020549050919050565b60006007600084815260200190815260200160002060000160008373ffffffffffffffffffffffffffffffffffffffff1673ffffffffffffffffffffffffffffffffffffffff16815260200190815260200160002060009054906101000a900460ff16905092915050565b6060600180546118949061491b565b80601f01602080910402602001604051908101604052809291908181526020018280546118c09061491b565b801561190d5780601f106118e25761010080835404028352916020019161190d565b820191906000526020600020905b8154815290600101906020018083116118f057829003601f168201915b5050505050905090565b60011515600d60003373ffffffffffffffffffffffffffffffffffffffff1673ffffffffffffffffffffffffffffffffffffffff16815260200190815260200160002060009054906101000a900460ff1615151461197457600080fd5b6000600a600084815260200190815260200160002060405180610120016040529081600082015481526020016001820180546119af9061491b565b80601f01602080910402602001604051908101604052809291908181526020018280546119db9061491b565b8015611a285780601f106119fd57610100808354040283529160200191611a28565b820191906000526020600020905b815481529060010190602001808311611a0b57829003601f168201915b50505050508152602001600282018054611a419061491b565b80601f0160208091040260200160405190810160405280929190818152602001828054611a6d9061491b565b8015611aba5780601f10611a8f57610100808354040283529160200191611aba565b820191906000526020600020905b815481529060010190602001808311611a9d57829003601f168201915b505050505081526020016003820160009054906101000a900473ffffffffffffffffffffffffffffffffffffffff1673ffffffffffffffffffffffffffffffffffffffff1673ffffffffffffffffffffffffffffffffffffffff168152602001600482015481526020016005820160009054906101000a900460ff161515151581526020016005820160019054906101000a900460ff161515151581526020016005820160029054906101000a900460ff161515151581526020016006820154815250509050818160a001901515908115158152505080600a6000858152602001908152602001600020600082015181600001556020820151816001019080519060200190611bca92919061339b565b506040820151816002019080519060200190611be792919061339b565b5060608201518160030160006101000a81548173ffffffffffffffffffffffffffffffffffffffff021916908373ffffffffffffffffffffffffffffffffffffffff1602179055506080820151816004015560a08201518160050160006101000a81548160ff02191690831515021790555060c08201518160050160016101000a81548160ff02191690831515021790555060e08201518160050160026101000a81548160ff0219169083151502179055506101008201518160060155905050505050565b6000801b81565b611cbb6121c9565b73ffffffffffffffffffffffffffffffffffffffff168273ffffffffffffffffffffffffffffffffffffffff161415611d29576040517f08c379a0000000000000000000000000000000000000000000000000000000008152600401611d20906143d2565b60405180910390fd5b8060056000611d366121c9565b73ffffffffffffffffffffffffffffffffffffffff1673ffffffffffffffffffffffffffffffffffffffff16815260200190815260200160002060008473ffffffffffffffffffffffffffffffffffffffff1673ffffffffffffffffffffffffffffffffffffffff16815260200190815260200160002060006101000a81548160ff0219169083151502179055508173ffffffffffffffffffffffffffffffffffffffff16611de36121c9565b73ffffffffffffffffffffffffffffffffffffffff167f17307eab39ab6107e8899845ad3d59bd9653f200f220920489ca2b5937696c3183604051611e2891906142df565b60405180910390a35050565b611e45611e3f6121c9565b8361228a565b611e84576040517f08c379a0000000000000000000000000000000000000000000000000000000008152600401611e7b90614552565b60405180910390fd5b611e90848484846128b6565b50505050565b6060611ea18261215d565b611ee0576040517f08c379a0000000000000000000000000000000000000000000000000000000008152600401611ed7906144b2565b60405180910390fd5b6000600660008481526020019081526020016000208054611f009061491b565b80601f0160208091040260200160405190810160405280929190818152602001828054611f2c9061491b565b8015611f795780601f10611f4e57610100808354040283529160200191611f79565b820191906000526020600020905b815481529060010190602001808311611f5c57829003601f168201915b505050505090506000611f8a612912565b9050600081511415611fa0578192505050611fe3565b600082511115611fd5578082604051602001611fbd92919061421a565b60405160208183030381529060405292505050611fe3565b611fde84612929565b925050505b919050565b60085481565b611ff782610a38565b612008816120036121c9565b6125c4565b6120128383612742565b505050565b6000600560008473ffffffffffffffffffffffffffffffffffffffff1673ffffffffffffffffffffffffffffffffffffffff16815260200190815260200160002060008373ffffffffffffffffffffffffffffffffffffffff1673ffffffffffffffffffffffffffffffffffffffff16815260200190815260200160002060009054906101000a900460ff16905092915050565b600d6020528060005260406000206000915054906101000a900460ff1681565b600b6020528060005260406000206000915090505481565b60007f7965db0b000000000000000000000000000000000000000000000000000000007bffffffffffffffffffffffffffffffffffffffffffffffffffffffff1916827bffffffffffffffffffffffffffffffffffffffffffffffffffffffff191614806121565750612155826129d0565b5b9050919050565b60008073ffffffffffffffffffffffffffffffffffffffff166002600084815260200190815260200160002060009054906101000a900473ffffffffffffffffffffffffffffffffffffffff1673ffffffffffffffffffffffffffffffffffffffff1614159050919050565b600033905090565b816004600083815260200190815260200160002060006101000a81548173ffffffffffffffffffffffffffffffffffffffff021916908373ffffffffffffffffffffffffffffffffffffffff160217905550808273ffffffffffffffffffffffffffffffffffffffff166122448361168a565b73ffffffffffffffffffffffffffffffffffffffff167f8c5be1e5ebec7d5bd14f71427d1e84f3dd0314c0f7b2291e5b200ac8c7c3b92560405160405180910390a45050565b60006122958261215d565b6122d4576040517f08c379a00000000000000000000000000000000000000000000000000000000081526004016122cb906143f2565b60405180910390fd5b60006122df8361168a565b90508073ffffffffffffffffffffffffffffffffffffffff168473ffffffffffffffffffffffffffffffffffffffff16148061234e57508373ffffffffffffffffffffffffffffffffffffffff166123368461076f565b73ffffffffffffffffffffffffffffffffffffffff16145b8061235f575061235e8185612017565b5b91505092915050565b8273ffffffffffffffffffffffffffffffffffffffff166123888261168a565b73ffffffffffffffffffffffffffffffffffffffff16146123de576040517f08c379a00000000000000000000000000000000000000000000000000000000081526004016123d5906144f2565b60405180910390fd5b600073ffffffffffffffffffffffffffffffffffffffff168273ffffffffffffffffffffffffffffffffffffffff16141561244e576040517f08c379a0000000000000000000000000000000000000000000000000000000008152600401612445906143b2565b60405180910390fd5b612459838383612ab2565b6124646000826121d1565b6001600360008573ffffffffffffffffffffffffffffffffffffffff1673ffffffffffffffffffffffffffffffffffffffff16815260200190815260200160002060008282546124b491906147fd565b925050819055506001600360008473ffffffffffffffffffffffffffffffffffffffff1673ffffffffffffffffffffffffffffffffffffffff168152602001908152602001600020600082825461250b919061471c565b92505081905550816002600083815260200190815260200160002060006101000a81548173ffffffffffffffffffffffffffffffffffffffff021916908373ffffffffffffffffffffffffffffffffffffffff160217905550808273ffffffffffffffffffffffffffffffffffffffff168473ffffffffffffffffffffffffffffffffffffffff167fddf252ad1be2c89b69c2b068fc378daa952ba7f163c4a11628f55a4df523b3ef60405160405180910390a4505050565b6125ce828261181a565b61265d576125f38173ffffffffffffffffffffffffffffffffffffffff166014612ab7565b6126018360001c6020612ab7565b60405160200161261292919061423e565b6040516020818303038152906040526040517f08c379a00000000000000000000000000000000000000000000000000000000081526004016126549190614330565b60405180910390fd5b5050565b61266b828261181a565b61273e5760016007600084815260200190815260200160002060000160008373ffffffffffffffffffffffffffffffffffffffff1673ffffffffffffffffffffffffffffffffffffffff16815260200190815260200160002060006101000a81548160ff0219169083151502179055506126e36121c9565b73ffffffffffffffffffffffffffffffffffffffff168173ffffffffffffffffffffffffffffffffffffffff16837f2f8788117e7eff1d82e926ec794901d17c78024a50270940304540a733656f0d60405160405180910390a45b5050565b61274c828261181a565b156128205760006007600084815260200190815260200160002060000160008373ffffffffffffffffffffffffffffffffffffffff1673ffffffffffffffffffffffffffffffffffffffff16815260200190815260200160002060006101000a81548160ff0219169083151502179055506127c56121c9565b73ffffffffffffffffffffffffffffffffffffffff168173ffffffffffffffffffffffffffffffffffffffff16837ff6391f5c32d9c69d2a47ea670b442974b53935d1edc7fd64eb21e047a839171b60405160405180910390a45b5050565b61283e828260405180602001604052806000815250612db1565b5050565b61284b8261215d565b61288a576040517f08c379a000000000000000000000000000000000000000000000000000000000815260040161288190614472565b60405180910390fd5b806006600084815260200190815260200160002090805190602001906128b192919061339b565b505050565b6128c1848484612368565b6128cd84848484612e0c565b61290c576040517f08c379a000000000000000000000000000000000000000000000000000000000815260040161290390614372565b60405180910390fd5b50505050565b606060405180602001604052806000815250905090565b60606129348261215d565b612973576040517f08c379a000000000000000000000000000000000000000000000000000000000815260040161296a90614512565b60405180910390fd5b600061297d612912565b9050600081511161299d57604051806020016040528060008152506129c8565b806129a784612fa3565b6040516020016129b892919061421a565b6040516020818303038152906040525b915050919050565b60007f80ac58cd000000000000000000000000000000000000000000000000000000007bffffffffffffffffffffffffffffffffffffffffffffffffffffffff1916827bffffffffffffffffffffffffffffffffffffffffffffffffffffffff19161480612a9b57507f5b5e139f000000000000000000000000000000000000000000000000000000007bffffffffffffffffffffffffffffffffffffffffffffffffffffffff1916827bffffffffffffffffffffffffffffffffffffffffffffffffffffffff1916145b80612aab5750612aaa82613150565b5b9050919050565b505050565b606060006002836002612aca91906147a3565b612ad4919061471c565b67ffffffffffffffff811115612b13577f4e487b7100000000000000000000000000000000000000000000000000000000600052604160045260246000fd5b6040519080825280601f01601f191660200182016040528015612b455781602001600182028036833780820191505090505b5090507f300000000000000000000000000000000000000000000000000000000000000081600081518110612ba3577f4e487b7100000000000000000000000000000000000000000000000000000000600052603260045260246000fd5b60200101907effffffffffffffffffffffffffffffffffffffffffffffffffffffffffffff1916908160001a9053507f780000000000000000000000000000000000000000000000000000000000000081600181518110612c2d577f4e487b7100000000000000000000000000000000000000000000000000000000600052603260045260246000fd5b60200101907effffffffffffffffffffffffffffffffffffffffffffffffffffffffffffff1916908160001a90535060006001846002612c6d91906147a3565b612c77919061471c565b90505b6001811115612d63577f3031323334353637383961626364656600000000000000000000000000000000600f861660108110612cdf577f4e487b7100000000000000000000000000000000000000000000000000000000600052603260045260246000fd5b1a60f81b828281518110612d1c577f4e487b7100000000000000000000000000000000000000000000000000000000600052603260045260246000fd5b60200101907effffffffffffffffffffffffffffffffffffffffffffffffffffffffffffff1916908160001a905350600485901c945080612d5c906148f1565b9050612c7a565b5060008414612da7576040517f08c379a0000000000000000000000000000000000000000000000000000000008152600401612d9e90614352565b60405180910390fd5b8091505092915050565b612dbb83836131ba565b612dc86000848484612e0c565b612e07576040517f08c379a0000000000000000000000000000000000000000000000000000000008152600401612dfe90614372565b60405180910390fd5b505050565b6000612e2d8473ffffffffffffffffffffffffffffffffffffffff16613388565b15612f96578373ffffffffffffffffffffffffffffffffffffffff1663150b7a02612e566121c9565b8786866040518563ffffffff1660e01b8152600401612e789493929190614293565b602060405180830381600087803b158015612e9257600080fd5b505af1925050508015612ec357506040513d601f19601f82011682018060405250810190612ec091906137c1565b60015b612f46573d8060008114612ef3576040519150601f19603f3d011682016040523d82523d6000602084013e612ef8565b606091505b50600081511415612f3e576040517f08c379a0000000000000000000000000000000000000000000000000000000008152600401612f3590614372565b60405180910390fd5b805181602001fd5b63150b7a0260e01b7bffffffffffffffffffffffffffffffffffffffffffffffffffffffff1916817bffffffffffffffffffffffffffffffffffffffffffffffffffffffff191614915050612f9b565b600190505b949350505050565b60606000821415612feb576040518060400160405280600181526020017f3000000000000000000000000000000000000000000000000000000000000000815250905061314b565b600082905060005b6000821461301d5780806130069061494d565b915050600a826130169190614772565b9150612ff3565b60008167ffffffffffffffff81111561305f577f4e487b7100000000000000000000000000000000000000000000000000000000600052604160045260246000fd5b6040519080825280601f01601f1916602001820160405280156130915781602001600182028036833780820191505090505b5090505b60008514613144576001826130aa91906147fd565b9150600a856130b99190614996565b60306130c5919061471c565b60f81b818381518110613101577f4e487b7100000000000000000000000000000000000000000000000000000000600052603260045260246000fd5b60200101907effffffffffffffffffffffffffffffffffffffffffffffffffffffffffffff1916908160001a905350600a8561313d9190614772565b9450613095565b8093505050505b919050565b60007f01ffc9a7000000000000000000000000000000000000000000000000000000007bffffffffffffffffffffffffffffffffffffffffffffffffffffffff1916827bffffffffffffffffffffffffffffffffffffffffffffffffffffffff1916149050919050565b600073ffffffffffffffffffffffffffffffffffffffff168273ffffffffffffffffffffffffffffffffffffffff16141561322a576040517f08c379a000000000000000000000000000000000000000000000000000000000815260040161322190614492565b60405180910390fd5b6132338161215d565b15613273576040517f08c379a000000000000000000000000000000000000000000000000000000000815260040161326a90614392565b60405180910390fd5b61327f60008383612ab2565b6001600360008473ffffffffffffffffffffffffffffffffffffffff1673ffffffffffffffffffffffffffffffffffffffff16815260200190815260200160002060008282546132cf919061471c565b92505081905550816002600083815260200190815260200160002060006101000a81548173ffffffffffffffffffffffffffffffffffffffff021916908373ffffffffffffffffffffffffffffffffffffffff160217905550808273ffffffffffffffffffffffffffffffffffffffff16600073ffffffffffffffffffffffffffffffffffffffff167fddf252ad1be2c89b69c2b068fc378daa952ba7f163c4a11628f55a4df523b3ef60405160405180910390a45050565b600080823b905060008111915050919050565b8280546133a79061491b565b90600052602060002090601f0160209004810192826133c95760008555613410565b82601f106133e257805160ff1916838001178555613410565b82800160010185558215613410579182015b8281111561340f5782518255916020019190600101906133f4565b5b50905061341d9190613421565b5090565b5b8082111561343a576000816000905550600101613422565b5090565b600061345161344c84614679565b614648565b90508281526020810184848401111561346957600080fd5b6134748482856148af565b509392505050565b600061348f61348a846146a9565b614648565b9050828152602081018484840111156134a757600080fd5b6134b28482856148af565b509392505050565b6000813590506134c981614a94565b92915050565b6000813590506134de81614aab565b92915050565b6000813590506134f381614ac2565b92915050565b60008135905061350881614ad9565b92915050565b60008151905061351d81614ad9565b92915050565b600082601f83011261353457600080fd5b813561354484826020860161343e565b91505092915050565b600082601f83011261355e57600080fd5b813561356e84826020860161347c565b91505092915050565b60008135905061358681614af0565b92915050565b60006020828403121561359e57600080fd5b60006135ac848285016134ba565b91505092915050565b600080604083850312156135c857600080fd5b60006135d6858286016134ba565b92505060206135e7858286016134ba565b9150509250929050565b60008060006060848603121561360657600080fd5b6000613614868287016134ba565b9350506020613625868287016134ba565b925050604061363686828701613577565b9150509250925092565b6000806000806080858703121561365657600080fd5b6000613664878288016134ba565b9450506020613675878288016134ba565b935050604061368687828801613577565b925050606085013567ffffffffffffffff8111156136a357600080fd5b6136af87828801613523565b91505092959194509250565b600080604083850312156136ce57600080fd5b60006136dc858286016134ba565b92505060206136ed858286016134cf565b9150509250929050565b6000806040838503121561370a57600080fd5b6000613718858286016134ba565b925050602061372985828601613577565b9150509250929050565b60006020828403121561374557600080fd5b6000613753848285016134e4565b91505092915050565b6000806040838503121561376f57600080fd5b600061377d858286016134e4565b925050602061378e858286016134ba565b9150509250929050565b6000602082840312156137aa57600080fd5b60006137b8848285016134f9565b91505092915050565b6000602082840312156137d357600080fd5b60006137e18482850161350e565b91505092915050565b6000806000606084860312156137ff57600080fd5b600084013567ffffffffffffffff81111561381957600080fd5b6138258682870161354d565b935050602061383686828701613577565b925050604084013567ffffffffffffffff81111561385357600080fd5b61385f8682870161354d565b9150509250925092565b60006020828403121561387b57600080fd5b600061388984828501613577565b91505092915050565b600080604083850312156138a557600080fd5b60006138b385828601613577565b92505060206138c4858286016134cf565b9150509250929050565b600080604083850312156138e157600080fd5b60006138ef85828601613577565b925050602083013567ffffffffffffffff81111561390c57600080fd5b6139188582860161354d565b9150509250929050565b60008060008060008060008060006101208a8c03121561394157600080fd5b600061394f8c828d01613577565b99505060208a013567ffffffffffffffff81111561396c57600080fd5b6139788c828d0161354d565b98505060408a013567ffffffffffffffff81111561399557600080fd5b6139a18c828d0161354d565b97505060606139b28c828d016134ba565b96505060806139c38c828d01613577565b95505060a06139d48c828d016134cf565b94505060c06139e58c828d016134cf565b93505060e06139f68c828d016134cf565b925050610100613a088c828d01613577565b9150509295985092959850929598565b613a2181614831565b82525050565b613a3081614843565b82525050565b613a3f8161484f565b82525050565b613a4e81614859565b82525050565b6000613a5f826146d9565b613a6981856146ef565b9350613a798185602086016148be565b613a8281614a83565b840191505092915050565b6000613a98826146e4565b613aa28185614700565b9350613ab28185602086016148be565b613abb81614a83565b840191505092915050565b6000613ad1826146e4565b613adb8185614711565b9350613aeb8185602086016148be565b80840191505092915050565b6000613b04602083614700565b91507f537472696e67733a20686578206c656e67746820696e73756666696369656e746000830152602082019050919050565b6000613b44603283614700565b91507f4552433732313a207472616e7366657220746f206e6f6e20455243373231526560008301527f63656976657220696d706c656d656e74657200000000000000000000000000006020830152604082019050919050565b6000613baa601c83614700565b91507f4552433732313a20746f6b656e20616c7265616479206d696e746564000000006000830152602082019050919050565b6000613bea602483614700565b91507f4552433732313a207472616e7366657220746f20746865207a65726f2061646460008301527f72657373000000000000000000000000000000000000000000000000000000006020830152604082019050919050565b6000613c50601983614700565b91507f4552433732313a20617070726f766520746f2063616c6c6572000000000000006000830152602082019050919050565b6000613c90602c83614700565b91507f4552433732313a206f70657261746f7220717565727920666f72206e6f6e657860008301527f697374656e7420746f6b656e00000000000000000000000000000000000000006020830152604082019050919050565b6000613cf6603883614700565b91507f4552433732313a20617070726f76652063616c6c6572206973206e6f74206f7760008301527f6e6572206e6f7220617070726f76656420666f7220616c6c00000000000000006020830152604082019050919050565b6000613d5c602a83614700565b91507f4552433732313a2062616c616e636520717565727920666f7220746865207a6560008301527f726f2061646472657373000000000000000000000000000000000000000000006020830152604082019050919050565b6000613dc2602983614700565b91507f4552433732313a206f776e657220717565727920666f72206e6f6e657869737460008301527f656e7420746f6b656e00000000000000000000000000000000000000000000006020830152604082019050919050565b6000613e28602e83614700565b91507f45524337323155524953746f726167653a2055524920736574206f66206e6f6e60008301527f6578697374656e7420746f6b656e0000000000000000000000000000000000006020830152604082019050919050565b6000613e8e602083614700565b91507f4552433732313a206d696e7420746f20746865207a65726f20616464726573736000830152602082019050919050565b6000613ece603183614700565b91507f45524337323155524953746f726167653a2055524920717565727920666f722060008301527f6e6f6e6578697374656e7420746f6b656e0000000000000000000000000000006020830152604082019050919050565b6000613f34602c83614700565b91507f4552433732313a20617070726f76656420717565727920666f72206e6f6e657860008301527f697374656e7420746f6b656e00000000000000000000000000000000000000006020830152604082019050919050565b6000613f9a602983614700565b91507f4552433732313a207472616e73666572206f6620746f6b656e2074686174206960008301527f73206e6f74206f776e00000000000000000000000000000000000000000000006020830152604082019050919050565b6000614000602f83614700565b91507f4552433732314d657461646174613a2055524920717565727920666f72206e6f60008301527f6e6578697374656e7420746f6b656e00000000000000000000000000000000006020830152604082019050919050565b6000614066602183614700565b91507f4552433732313a20617070726f76616c20746f2063757272656e74206f776e6560008301527f72000000000000000000000000000000000000000000000000000000000000006020830152604082019050919050565b60006140cc603183614700565b91507f4552433732313a207472616e736665722063616c6c6572206973206e6f74206f60008301527f776e6572206e6f7220617070726f7665640000000000000000000000000000006020830152604082019050919050565b6000614132601783614711565b91507f416363657373436f6e74726f6c3a206163636f756e74200000000000000000006000830152601782019050919050565b6000614172601183614711565b91507f206973206d697373696e6720726f6c65200000000000000000000000000000006000830152601182019050919050565b60006141b2602f83614700565b91507f416363657373436f6e74726f6c3a2063616e206f6e6c792072656e6f756e636560008301527f20726f6c657320666f722073656c6600000000000000000000000000000000006020830152604082019050919050565b614214816148a5565b82525050565b60006142268285613ac6565b91506142328284613ac6565b91508190509392505050565b600061424982614125565b91506142558285613ac6565b915061426082614165565b915061426c8284613ac6565b91508190509392505050565b600060208201905061428d6000830184613a18565b92915050565b60006080820190506142a86000830187613a18565b6142b56020830186613a18565b6142c2604083018561420b565b81810360608301526142d48184613a54565b905095945050505050565b60006020820190506142f46000830184613a27565b92915050565b600060208201905061430f6000830184613a36565b92915050565b600060208201905061432a6000830184613a45565b92915050565b6000602082019050818103600083015261434a8184613a8d565b905092915050565b6000602082019050818103600083015261436b81613af7565b9050919050565b6000602082019050818103600083015261438b81613b37565b9050919050565b600060208201905081810360008301526143ab81613b9d565b9050919050565b600060208201905081810360008301526143cb81613bdd565b9050919050565b600060208201905081810360008301526143eb81613c43565b9050919050565b6000602082019050818103600083015261440b81613c83565b9050919050565b6000602082019050818103600083015261442b81613ce9565b9050919050565b6000602082019050818103600083015261444b81613d4f565b9050919050565b6000602082019050818103600083015261446b81613db5565b9050919050565b6000602082019050818103600083015261448b81613e1b565b9050919050565b600060208201905081810360008301526144ab81613e81565b9050919050565b600060208201905081810360008301526144cb81613ec1565b9050919050565b600060208201905081810360008301526144eb81613f27565b9050919050565b6000602082019050818103600083015261450b81613f8d565b9050919050565b6000602082019050818103600083015261452b81613ff3565b9050919050565b6000602082019050818103600083015261454b81614059565b9050919050565b6000602082019050818103600083015261456b816140bf565b9050919050565b6000602082019050818103600083015261458b816141a5565b9050919050565b60006020820190506145a7600083018461420b565b92915050565b6000610120820190506145c3600083018c61420b565b81810360208301526145d5818b613a8d565b905081810360408301526145e9818a613a8d565b90506145f86060830189613a18565b614605608083018861420b565b61461260a0830187613a27565b61461f60c0830186613a27565b61462c60e0830185613a27565b61463a61010083018461420b565b9a9950505050505050505050565b6000604051905081810181811067ffffffffffffffff8211171561466f5761466e614a54565b5b8060405250919050565b600067ffffffffffffffff82111561469457614693614a54565b5b601f19601f8301169050602081019050919050565b600067ffffffffffffffff8211156146c4576146c3614a54565b5b601f19601f8301169050602081019050919050565b600081519050919050565b600081519050919050565b600082825260208201905092915050565b600082825260208201905092915050565b600081905092915050565b6000614727826148a5565b9150614732836148a5565b9250827fffffffffffffffffffffffffffffffffffffffffffffffffffffffffffffffff03821115614767576147666149c7565b5b828201905092915050565b600061477d826148a5565b9150614788836148a5565b925082614798576147976149f6565b5b828204905092915050565b60006147ae826148a5565b91506147b9836148a5565b9250817fffffffffffffffffffffffffffffffffffffffffffffffffffffffffffffffff04831182151516156147f2576147f16149c7565b5b828202905092915050565b6000614808826148a5565b9150614813836148a5565b925082821015614826576148256149c7565b5b828203905092915050565b600061483c82614885565b9050919050565b60008115159050919050565b6000819050919050565b60007fffffffff0000000000000000000000000000000000000000000000000000000082169050919050565b600073ffffffffffffffffffffffffffffffffffffffff82169050919050565b6000819050919050565b82818337600083830152505050565b60005b838110156148dc5780820151818401526020810190506148c1565b838111156148eb576000848401525b50505050565b60006148fc826148a5565b915060008214156149105761490f6149c7565b5b600182039050919050565b6000600282049050600182168061493357607f821691505b6020821081141561494757614946614a25565b5b50919050565b6000614958826148a5565b91507fffffffffffffffffffffffffffffffffffffffffffffffffffffffffffffffff82141561498b5761498a6149c7565b5b600182019050919050565b60006149a1826148a5565b91506149ac836148a5565b9250826149bc576149bb6149f6565b5b828206905092915050565b7f4e487b7100000000000000000000000000000000000000000000000000000000600052601160045260246000fd5b7f4e487b7100000000000000000000000000000000000000000000000000000000600052601260045260246000fd5b7f4e487b7100000000000000000000000000000000000000000000000000000000600052602260045260246000fd5b7f4e487b7100000000000000000000000000000000000000000000000000000000600052604160045260246000fd5b6000601f19601f8301169050919050565b614a9d81614831565b8114614aa857600080fd5b50565b614ab481614843565b8114614abf57600080fd5b50565b614acb8161484f565b8114614ad657600080fd5b50565b614ae281614859565b8114614aed57600080fd5b50565b614af9816148a5565b8114614b0457600080fd5b5056fea264697066735822122010c609ab55db04275a46eb83d98768d465d10d254015055ce1c0e92c12ee0a3364736f6c63430008000033",
  "immutableReferences": {},
  "source": "// SPDX-License-Identifier: MIT\npragma solidity ^0.8.0;\n\nimport \"@openzeppelin/contracts/token/ERC721/extensions/ERC721URIStorage.sol\";\nimport \"@openzeppelin/contracts/utils/Counters.sol\";\nimport \"@openzeppelin/contracts/access/AccessControl.sol\";\nimport \"@openzeppelin/contracts/token/ERC721/IERC721Receiver.sol\";\nimport {SafeMath} from \"./utils/SafeMath.sol\";\n\ncontract Assets is ERC721URIStorage, IERC721Receiver, AccessControl {\n    using SafeMath for uint256;\n\n    uint256 public tokenCounter;\n    // super admin\n    address public Validator;\n\n    struct Asset {\n        uint256 id;\n        string name;\n        string ipfsHash;\n        address owner;\n        uint256 price;\n        bool authenticate;\n        bool collateralLocked;\n        bool liquidityRemoved;\n        uint256 totalStake;\n    }\n\n    mapping(uint256 => Asset) public AssetNfts;\n    mapping(address => uint256) public deposit;\n    \n    address[] public owners;\n    mapping(address => bool) public ownerByAddress;\n\n    modifier onlyOwner() {\n        require(ownerByAddress[msg.sender] == true);\n        _;\n    }\n\n    constructor() ERC721(\"Altantis\", \"Assets\") {\n        tokenCounter = 0;\n        _setupRole(DEFAULT_ADMIN_ROLE, _msgSender());\n        \n        ownerByAddress[msg.sender] = true;\n        Validator = msg.sender;\n    }\n\n    function setOwner( address _owner ) public onlyOwner {\n        ownerByAddress[_owner] = true;\n    }\n\n    function createCollectible(\n        string memory _name,\n        uint256 _price,\n        string memory tokenURI\n    ) public onlyOwner returns (uint256) {\n        tokenCounter = tokenCounter + 1;\n        uint256 newItemId = tokenCounter;\n\n        _safeMint(msg.sender, newItemId);\n        _setTokenURI(newItemId, tokenURI);\n\n        AssetNfts[newItemId] = Asset(\n            newItemId,\n            _name,\n            tokenURI,\n            msg.sender,\n            _price,\n            false,\n            false,\n            false,\n            0\n        );\n\n        return newItemId;\n    }\n\n    function modifyCollectable(\n        uint256 tokenId,\n        string memory name,\n        string memory ipfsHash,\n        address owner,\n        uint256 price,\n        bool authenticate,\n        bool collateralLocked,\n        bool liquidityRemoved,\n        uint256 totalStake\n    ) public onlyOwner returns (bool) {\n        Asset memory _asset = AssetNfts[tokenId];\n\n        _asset.name = name;\n        _asset.ipfsHash = ipfsHash;\n        _asset.owner = owner;\n        _asset.price = price;\n        _asset.authenticate = authenticate;\n        _asset.collateralLocked = collateralLocked;\n        _asset.liquidityRemoved = liquidityRemoved;\n        _asset.totalStake = totalStake;\n\n        AssetNfts[tokenId] = _asset;\n        return true;\n    }\n\n    function authenticateAnAsset(\n        uint256 tokenId,\n        bool authencity\n    ) public onlyOwner {\n        Asset memory _asset = AssetNfts[tokenId];\n\n        _asset.authenticate = authencity;\n        AssetNfts[tokenId] = _asset;\n    }\n\n    function changeMetaData(\n        uint256 tokenId,\n        string memory ipfsHash\n    ) public onlyOwner {\n        Asset memory _asset = AssetNfts[tokenId];\n\n        _asset.ipfsHash = ipfsHash;\n        AssetNfts[tokenId] = _asset;\n    }\n\n    function onERC721Received(address, address, uint256, bytes memory) public virtual override returns (bytes4) {\n        return this.onERC721Received.selector;\n    }\n\n    function supportsInterface(bytes4 interfaceId) public view virtual override(ERC721, AccessControl) returns (bool) {\n        return super.supportsInterface(interfaceId);\n    }\n}",
  "sourcePath": "/Users/sagarbehara/Work/AtlantisWorldWeb3/src/contracts/Asset.sol",
  "compiler": {
    "name": "solc",
    "version": "0.8.0+commit.c7dfd78e.Emscripten.clang"
  },
  "schemaVersion": "3.4.1",
  "updatedAt": "2021-08-14T09:14:14.485Z",
  "networkType": "ethereum",
  "devdoc": {
    "kind": "dev",
    "methods": {
      "approve(address,uint256)": {
        "details": "See {IERC721-approve}."
      },
      "balanceOf(address)": {
        "details": "See {IERC721-balanceOf}."
      },
      "getApproved(uint256)": {
        "details": "See {IERC721-getApproved}."
      },
      "getRoleAdmin(bytes32)": {
        "details": "Returns the admin role that controls `role`. See {grantRole} and {revokeRole}. To change a role's admin, use {_setRoleAdmin}."
      },
      "grantRole(bytes32,address)": {
        "details": "Grants `role` to `account`. If `account` had not been already granted `role`, emits a {RoleGranted} event. Requirements: - the caller must have ``role``'s admin role."
      },
      "hasRole(bytes32,address)": {
        "details": "Returns `true` if `account` has been granted `role`."
      },
      "isApprovedForAll(address,address)": {
        "details": "See {IERC721-isApprovedForAll}."
      },
      "name()": {
        "details": "See {IERC721Metadata-name}."
      },
      "ownerOf(uint256)": {
        "details": "See {IERC721-ownerOf}."
      },
      "renounceRole(bytes32,address)": {
        "details": "Revokes `role` from the calling account. Roles are often managed via {grantRole} and {revokeRole}: this function's purpose is to provide a mechanism for accounts to lose their privileges if they are compromised (such as when a trusted device is misplaced). If the calling account had been granted `role`, emits a {RoleRevoked} event. Requirements: - the caller must be `account`."
      },
      "revokeRole(bytes32,address)": {
        "details": "Revokes `role` from `account`. If `account` had been granted `role`, emits a {RoleRevoked} event. Requirements: - the caller must have ``role``'s admin role."
      },
      "safeTransferFrom(address,address,uint256)": {
        "details": "See {IERC721-safeTransferFrom}."
      },
      "safeTransferFrom(address,address,uint256,bytes)": {
        "details": "See {IERC721-safeTransferFrom}."
      },
      "setApprovalForAll(address,bool)": {
        "details": "See {IERC721-setApprovalForAll}."
      },
      "symbol()": {
        "details": "See {IERC721Metadata-symbol}."
      },
      "tokenURI(uint256)": {
        "details": "See {IERC721Metadata-tokenURI}."
      },
      "transferFrom(address,address,uint256)": {
        "details": "See {IERC721-transferFrom}."
      }
    },
    "version": 1
  },
  "userdoc": {
    "kind": "user",
    "methods": {},
    "version": 1
  }
}