{
  "contractName": "Assets",
  "abi": [
    {
      "inputs": [],
      "stateMutability": "nonpayable",
      "type": "constructor"
    },
    {
      "anonymous": false,
      "inputs": [
        {
          "indexed": true,
          "internalType": "address",
          "name": "owner",
          "type": "address"
        },
        {
          "indexed": true,
          "internalType": "address",
          "name": "approved",
          "type": "address"
        },
        {
          "indexed": true,
          "internalType": "uint256",
          "name": "tokenId",
          "type": "uint256"
        }
      ],
      "name": "Approval",
      "type": "event"
    },
    {
      "anonymous": false,
      "inputs": [
        {
          "indexed": true,
          "internalType": "address",
          "name": "owner",
          "type": "address"
        },
        {
          "indexed": true,
          "internalType": "address",
          "name": "operator",
          "type": "address"
        },
        {
          "indexed": false,
          "internalType": "bool",
          "name": "approved",
          "type": "bool"
        }
      ],
      "name": "ApprovalForAll",
      "type": "event"
    },
    {
      "anonymous": false,
      "inputs": [
        {
          "indexed": true,
          "internalType": "bytes32",
          "name": "role",
          "type": "bytes32"
        },
        {
          "indexed": true,
          "internalType": "bytes32",
          "name": "previousAdminRole",
          "type": "bytes32"
        },
        {
          "indexed": true,
          "internalType": "bytes32",
          "name": "newAdminRole",
          "type": "bytes32"
        }
      ],
      "name": "RoleAdminChanged",
      "type": "event"
    },
    {
      "anonymous": false,
      "inputs": [
        {
          "indexed": true,
          "internalType": "bytes32",
          "name": "role",
          "type": "bytes32"
        },
        {
          "indexed": true,
          "internalType": "address",
          "name": "account",
          "type": "address"
        },
        {
          "indexed": true,
          "internalType": "address",
          "name": "sender",
          "type": "address"
        }
      ],
      "name": "RoleGranted",
      "type": "event"
    },
    {
      "anonymous": false,
      "inputs": [
        {
          "indexed": true,
          "internalType": "bytes32",
          "name": "role",
          "type": "bytes32"
        },
        {
          "indexed": true,
          "internalType": "address",
          "name": "account",
          "type": "address"
        },
        {
          "indexed": true,
          "internalType": "address",
          "name": "sender",
          "type": "address"
        }
      ],
      "name": "RoleRevoked",
      "type": "event"
    },
    {
      "anonymous": false,
      "inputs": [
        {
          "indexed": true,
          "internalType": "address",
          "name": "from",
          "type": "address"
        },
        {
          "indexed": true,
          "internalType": "address",
          "name": "to",
          "type": "address"
        },
        {
          "indexed": true,
          "internalType": "uint256",
          "name": "tokenId",
          "type": "uint256"
        }
      ],
      "name": "Transfer",
      "type": "event"
    },
    {
      "inputs": [
        {
          "internalType": "uint256",
          "name": "",
          "type": "uint256"
        }
      ],
      "name": "AssetNfts",
      "outputs": [
        {
          "internalType": "uint256",
          "name": "id",
          "type": "uint256"
        },
        {
          "internalType": "string",
          "name": "name",
          "type": "string"
        },
        {
          "internalType": "string",
          "name": "ipfsHash",
          "type": "string"
        },
        {
          "internalType": "address",
          "name": "owner",
          "type": "address"
        },
        {
          "internalType": "uint256",
          "name": "price",
          "type": "uint256"
        },
        {
          "internalType": "bool",
          "name": "authenticate",
          "type": "bool"
        },
        {
          "internalType": "bool",
          "name": "collateralLocked",
          "type": "bool"
        },
        {
          "internalType": "bool",
          "name": "liquidityRemoved",
          "type": "bool"
        },
        {
          "internalType": "uint256",
          "name": "totalStake",
          "type": "uint256"
        }
      ],
      "stateMutability": "view",
      "type": "function",
      "constant": true
    },
    {
      "inputs": [],
      "name": "DEFAULT_ADMIN_ROLE",
      "outputs": [
        {
          "internalType": "bytes32",
          "name": "",
          "type": "bytes32"
        }
      ],
      "stateMutability": "view",
      "type": "function",
      "constant": true
    },
    {
      "inputs": [],
      "name": "Validator",
      "outputs": [
        {
          "internalType": "address",
          "name": "",
          "type": "address"
        }
      ],
      "stateMutability": "view",
      "type": "function",
      "constant": true
    },
    {
      "inputs": [
        {
          "internalType": "address",
          "name": "to",
          "type": "address"
        },
        {
          "internalType": "uint256",
          "name": "tokenId",
          "type": "uint256"
        }
      ],
      "name": "approve",
      "outputs": [],
      "stateMutability": "nonpayable",
      "type": "function"
    },
    {
      "inputs": [
        {
          "internalType": "address",
          "name": "owner",
          "type": "address"
        }
      ],
      "name": "balanceOf",
      "outputs": [
        {
          "internalType": "uint256",
          "name": "",
          "type": "uint256"
        }
      ],
      "stateMutability": "view",
      "type": "function",
      "constant": true
    },
    {
      "inputs": [
        {
          "internalType": "address",
          "name": "",
          "type": "address"
        }
      ],
      "name": "deposit",
      "outputs": [
        {
          "internalType": "uint256",
          "name": "",
          "type": "uint256"
        }
      ],
      "stateMutability": "view",
      "type": "function",
      "constant": true
    },
    {
      "inputs": [
        {
          "internalType": "uint256",
          "name": "tokenId",
          "type": "uint256"
        }
      ],
      "name": "getApproved",
      "outputs": [
        {
          "internalType": "address",
          "name": "",
          "type": "address"
        }
      ],
      "stateMutability": "view",
      "type": "function",
      "constant": true
    },
    {
      "inputs": [
        {
          "internalType": "bytes32",
          "name": "role",
          "type": "bytes32"
        }
      ],
      "name": "getRoleAdmin",
      "outputs": [
        {
          "internalType": "bytes32",
          "name": "",
          "type": "bytes32"
        }
      ],
      "stateMutability": "view",
      "type": "function",
      "constant": true
    },
    {
      "inputs": [
        {
          "internalType": "bytes32",
          "name": "role",
          "type": "bytes32"
        },
        {
          "internalType": "address",
          "name": "account",
          "type": "address"
        }
      ],
      "name": "grantRole",
      "outputs": [],
      "stateMutability": "nonpayable",
      "type": "function"
    },
    {
      "inputs": [
        {
          "internalType": "bytes32",
          "name": "role",
          "type": "bytes32"
        },
        {
          "internalType": "address",
          "name": "account",
          "type": "address"
        }
      ],
      "name": "hasRole",
      "outputs": [
        {
          "internalType": "bool",
          "name": "",
          "type": "bool"
        }
      ],
      "stateMutability": "view",
      "type": "function",
      "constant": true
    },
    {
      "inputs": [
        {
          "internalType": "address",
          "name": "owner",
          "type": "address"
        },
        {
          "internalType": "address",
          "name": "operator",
          "type": "address"
        }
      ],
      "name": "isApprovedForAll",
      "outputs": [
        {
          "internalType": "bool",
          "name": "",
          "type": "bool"
        }
      ],
      "stateMutability": "view",
      "type": "function",
      "constant": true
    },
    {
      "inputs": [],
      "name": "name",
      "outputs": [
        {
          "internalType": "string",
          "name": "",
          "type": "string"
        }
      ],
      "stateMutability": "view",
      "type": "function",
      "constant": true
    },
    {
      "inputs": [
        {
          "internalType": "address",
          "name": "",
          "type": "address"
        }
      ],
      "name": "ownerByAddress",
      "outputs": [
        {
          "internalType": "bool",
          "name": "",
          "type": "bool"
        }
      ],
      "stateMutability": "view",
      "type": "function",
      "constant": true
    },
    {
      "inputs": [
        {
          "internalType": "uint256",
          "name": "tokenId",
          "type": "uint256"
        }
      ],
      "name": "ownerOf",
      "outputs": [
        {
          "internalType": "address",
          "name": "",
          "type": "address"
        }
      ],
      "stateMutability": "view",
      "type": "function",
      "constant": true
    },
    {
      "inputs": [
        {
          "internalType": "uint256",
          "name": "",
          "type": "uint256"
        }
      ],
      "name": "owners",
      "outputs": [
        {
          "internalType": "address",
          "name": "",
          "type": "address"
        }
      ],
      "stateMutability": "view",
      "type": "function",
      "constant": true
    },
    {
      "inputs": [
        {
          "internalType": "bytes32",
          "name": "role",
          "type": "bytes32"
        },
        {
          "internalType": "address",
          "name": "account",
          "type": "address"
        }
      ],
      "name": "renounceRole",
      "outputs": [],
      "stateMutability": "nonpayable",
      "type": "function"
    },
    {
      "inputs": [
        {
          "internalType": "bytes32",
          "name": "role",
          "type": "bytes32"
        },
        {
          "internalType": "address",
          "name": "account",
          "type": "address"
        }
      ],
      "name": "revokeRole",
      "outputs": [],
      "stateMutability": "nonpayable",
      "type": "function"
    },
    {
      "inputs": [
        {
          "internalType": "address",
          "name": "from",
          "type": "address"
        },
        {
          "internalType": "address",
          "name": "to",
          "type": "address"
        },
        {
          "internalType": "uint256",
          "name": "tokenId",
          "type": "uint256"
        }
      ],
      "name": "safeTransferFrom",
      "outputs": [],
      "stateMutability": "nonpayable",
      "type": "function"
    },
    {
      "inputs": [
        {
          "internalType": "address",
          "name": "from",
          "type": "address"
        },
        {
          "internalType": "address",
          "name": "to",
          "type": "address"
        },
        {
          "internalType": "uint256",
          "name": "tokenId",
          "type": "uint256"
        },
        {
          "internalType": "bytes",
          "name": "_data",
          "type": "bytes"
        }
      ],
      "name": "safeTransferFrom",
      "outputs": [],
      "stateMutability": "nonpayable",
      "type": "function"
    },
    {
      "inputs": [
        {
          "internalType": "address",
          "name": "operator",
          "type": "address"
        },
        {
          "internalType": "bool",
          "name": "approved",
          "type": "bool"
        }
      ],
      "name": "setApprovalForAll",
      "outputs": [],
      "stateMutability": "nonpayable",
      "type": "function"
    },
    {
      "inputs": [],
      "name": "symbol",
      "outputs": [
        {
          "internalType": "string",
          "name": "",
          "type": "string"
        }
      ],
      "stateMutability": "view",
      "type": "function",
      "constant": true
    },
    {
      "inputs": [],
      "name": "tokenCounter",
      "outputs": [
        {
          "internalType": "uint256",
          "name": "",
          "type": "uint256"
        }
      ],
      "stateMutability": "view",
      "type": "function",
      "constant": true
    },
    {
      "inputs": [
        {
          "internalType": "uint256",
          "name": "tokenId",
          "type": "uint256"
        }
      ],
      "name": "tokenURI",
      "outputs": [
        {
          "internalType": "string",
          "name": "",
          "type": "string"
        }
      ],
      "stateMutability": "view",
      "type": "function",
      "constant": true
    },
    {
      "inputs": [
        {
          "internalType": "address",
          "name": "from",
          "type": "address"
        },
        {
          "internalType": "address",
          "name": "to",
          "type": "address"
        },
        {
          "internalType": "uint256",
          "name": "tokenId",
          "type": "uint256"
        }
      ],
      "name": "transferFrom",
      "outputs": [],
      "stateMutability": "nonpayable",
      "type": "function"
    },
    {
      "inputs": [
        {
          "internalType": "address",
          "name": "_owner",
          "type": "address"
        }
      ],
      "name": "setOwner",
      "outputs": [],
      "stateMutability": "nonpayable",
      "type": "function"
    },
    {
      "inputs": [
        {
          "internalType": "string",
          "name": "_name",
          "type": "string"
        },
        {
          "internalType": "uint256",
          "name": "_price",
          "type": "uint256"
        },
        {
          "internalType": "string",
          "name": "tokenURI",
          "type": "string"
        }
      ],
      "name": "createCollectible",
      "outputs": [
        {
          "internalType": "uint256",
          "name": "",
          "type": "uint256"
        }
      ],
      "stateMutability": "nonpayable",
      "type": "function"
    },
    {
      "inputs": [
        {
          "internalType": "uint256",
          "name": "tokenId",
          "type": "uint256"
        },
        {
          "internalType": "string",
          "name": "name",
          "type": "string"
        },
        {
          "internalType": "string",
          "name": "ipfsHash",
          "type": "string"
        },
        {
          "internalType": "address",
          "name": "owner",
          "type": "address"
        },
        {
          "internalType": "uint256",
          "name": "price",
          "type": "uint256"
        },
        {
          "internalType": "bool",
          "name": "authenticate",
          "type": "bool"
        },
        {
          "internalType": "bool",
          "name": "collateralLocked",
          "type": "bool"
        },
        {
          "internalType": "bool",
          "name": "liquidityRemoved",
          "type": "bool"
        },
        {
          "internalType": "uint256",
          "name": "totalStake",
          "type": "uint256"
        }
      ],
      "name": "modifyCollectable",
      "outputs": [
        {
          "internalType": "bool",
          "name": "",
          "type": "bool"
        }
      ],
      "stateMutability": "nonpayable",
      "type": "function"
    },
    {
      "inputs": [
        {
          "internalType": "address",
          "name": "",
          "type": "address"
        },
        {
          "internalType": "address",
          "name": "",
          "type": "address"
        },
        {
          "internalType": "uint256",
          "name": "",
          "type": "uint256"
        },
        {
          "internalType": "bytes",
          "name": "",
          "type": "bytes"
        }
      ],
      "name": "onERC721Received",
      "outputs": [
        {
          "internalType": "bytes4",
          "name": "",
          "type": "bytes4"
        }
      ],
      "stateMutability": "nonpayable",
      "type": "function"
    },
    {
      "inputs": [
        {
          "internalType": "bytes4",
          "name": "interfaceId",
          "type": "bytes4"
        }
      ],
      "name": "supportsInterface",
      "outputs": [
        {
          "internalType": "bool",
          "name": "",
          "type": "bool"
        }
      ],
      "stateMutability": "view",
      "type": "function",
      "constant": true
    }
  ],
  "bytecode": "0x60806040523480156200001157600080fd5b506040518060400160405280600881526020017f416c74616e7469730000000000000000000000000000000000000000000000008152506040518060400160405280600681526020017f4173736574730000000000000000000000000000000000000000000000000000815250816000908051906020019062000096929190620002f8565b508060019080519060200190620000af929190620002f8565b5050506000600881905550620000de6000801b620000d26200017d60201b60201c565b6200018560201b60201c565b6001600d60003373ffffffffffffffffffffffffffffffffffffffff1673ffffffffffffffffffffffffffffffffffffffff16815260200190815260200160002060006101000a81548160ff02191690831515021790555033600960006101000a81548173ffffffffffffffffffffffffffffffffffffffff021916908373ffffffffffffffffffffffffffffffffffffffff1602179055506200040d565b600033905090565b6200019782826200019b60201b60201c565b5050565b620001ad82826200028d60201b60201c565b620002895760016007600084815260200190815260200160002060000160008373ffffffffffffffffffffffffffffffffffffffff1673ffffffffffffffffffffffffffffffffffffffff16815260200190815260200160002060006101000a81548160ff0219169083151502179055506200022e6200017d60201b60201c565b73ffffffffffffffffffffffffffffffffffffffff168173ffffffffffffffffffffffffffffffffffffffff16837f2f8788117e7eff1d82e926ec794901d17c78024a50270940304540a733656f0d60405160405180910390a45b5050565b60006007600084815260200190815260200160002060000160008373ffffffffffffffffffffffffffffffffffffffff1673ffffffffffffffffffffffffffffffffffffffff16815260200190815260200160002060009054906101000a900460ff16905092915050565b8280546200030690620003a8565b90600052602060002090601f0160209004810192826200032a576000855562000376565b82601f106200034557805160ff191683800117855562000376565b8280016001018555821562000376579182015b828111156200037557825182559160200191906001019062000358565b5b50905062000385919062000389565b5090565b5b80821115620003a45760008160009055506001016200038a565b5090565b60006002820490506001821680620003c157607f821691505b60208210811415620003d857620003d7620003de565b5b50919050565b7f4e487b7100000000000000000000000000000000000000000000000000000000600052602260045260246000fd5b61433c806200041d6000396000f3fe608060405234801561001057600080fd5b50600436106101cf5760003560e01c80635101126411610104578063a22cb465116100a2578063d547741f11610071578063d547741f14610592578063e985e9c5146105ae578063eb6b192f146105de578063f340fa011461060e576101cf565b8063a22cb4651461050c578063b88d4fde14610528578063c87b56dd14610544578063d082e38114610574576101cf565b806370a08231116100de57806370a082311461047057806391d14854146104a057806395d89b41146104d0578063a217fddf146104ee576101cf565b806351011264146103f25780636352211e146104225780636d43ecc614610452576101cf565b806323b872dd116101715780633143bc311161014b5780633143bc311461035257806333b2e9ce1461038257806336568abe146103ba57806342842e0e146103d6576101cf565b806323b872dd146102ea578063248a9ca3146103065780632f2ff15d14610336576101cf565b8063081812fc116101ad578063081812fc14610252578063095ea7b31461028257806313af40351461029e578063150b7a02146102ba576101cf565b806301ffc9a7146101d4578063025e7c271461020457806306fdde0314610234575b600080fd5b6101ee60048036038101906101e99190613027565b61063e565b6040516101fb9190613ade565b60405180910390f35b61021e600480360381019061021991906130f8565b610650565b60405161022b9190613a77565b60405180910390f35b61023c61068f565b6040516102499190613b2f565b60405180910390f35b61026c600480360381019061026791906130f8565b610721565b6040516102799190613a77565b60405180910390f35b61029c60048036038101906102979190612f86565b6107a6565b005b6102b860048036038101906102b39190612e1b565b6108be565b005b6102d460048036038101906102cf9190612ecf565b610976565b6040516102e19190613b14565b60405180910390f35b61030460048036038101906102ff9190612e80565b61098a565b005b610320600480360381019061031b9190612fc2565b6109ea565b60405161032d9190613af9565b60405180910390f35b610350600480360381019061034b9190612feb565b610a0a565b005b61036c60048036038101906103679190613121565b610a33565b6040516103799190613ade565b60405180910390f35b61039c600480360381019061039791906130f8565b610e56565b6040516103b199989796959493929190613dac565b60405180910390f35b6103d460048036038101906103cf9190612feb565b610ffb565b005b6103f060048036038101906103eb9190612e80565b61107e565b005b61040c60048036038101906104079190613079565b61109e565b6040516104199190613d91565b60405180910390f35b61043c600480360381019061043791906130f8565b6112ae565b6040516104499190613a77565b60405180910390f35b61045a611360565b6040516104679190613a77565b60405180910390f35b61048a60048036038101906104859190612e1b565b611386565b6040516104979190613d91565b60405180910390f35b6104ba60048036038101906104b59190612feb565b61143e565b6040516104c79190613ade565b60405180910390f35b6104d86114a9565b6040516104e59190613b2f565b60405180910390f35b6104f661153b565b6040516105039190613af9565b60405180910390f35b61052660048036038101906105219190612f4a565b611542565b005b610542600480360381019061053d9190612ecf565b6116c3565b005b61055e600480360381019061055991906130f8565b611725565b60405161056b9190613b2f565b60405180910390f35b61057c611877565b6040516105899190613d91565b60405180910390f35b6105ac60048036038101906105a79190612feb565b61187d565b005b6105c860048036038101906105c39190612e44565b6118a6565b6040516105d59190613ade565b60405180910390f35b6105f860048036038101906105f39190612e1b565b61193a565b6040516106059190613ade565b60405180910390f35b61062860048036038101906106239190612e1b565b61195a565b6040516106359190613d91565b60405180910390f35b600061064982611972565b9050919050565b600c818154811061066057600080fd5b906000526020600020016000915054906101000a900473ffffffffffffffffffffffffffffffffffffffff1681565b60606000805461069e9061411a565b80601f01602080910402602001604051908101604052809291908181526020018280546106ca9061411a565b80156107175780601f106106ec57610100808354040283529160200191610717565b820191906000526020600020905b8154815290600101906020018083116106fa57829003601f168201915b5050505050905090565b600061072c826119ec565b61076b576040517f08c379a000000000000000000000000000000000000000000000000000000000815260040161076290613cd1565b60405180910390fd5b6004600083815260200190815260200160002060009054906101000a900473ffffffffffffffffffffffffffffffffffffffff169050919050565b60006107b1826112ae565b90508073ffffffffffffffffffffffffffffffffffffffff168373ffffffffffffffffffffffffffffffffffffffff161415610822576040517f08c379a000000000000000000000000000000000000000000000000000000000815260040161081990613d31565b60405180910390fd5b8073ffffffffffffffffffffffffffffffffffffffff16610841611a58565b73ffffffffffffffffffffffffffffffffffffffff161480610870575061086f8161086a611a58565b6118a6565b5b6108af576040517f08c379a00000000000000000000000000000000000000000000000000000000081526004016108a690613c11565b60405180910390fd5b6108b98383611a60565b505050565b60011515600d60003373ffffffffffffffffffffffffffffffffffffffff1673ffffffffffffffffffffffffffffffffffffffff16815260200190815260200160002060009054906101000a900460ff1615151461091b57600080fd5b6001600d60008373ffffffffffffffffffffffffffffffffffffffff1673ffffffffffffffffffffffffffffffffffffffff16815260200190815260200160002060006101000a81548160ff02191690831515021790555050565b600063150b7a0260e01b9050949350505050565b61099b610995611a58565b82611b19565b6109da576040517f08c379a00000000000000000000000000000000000000000000000000000000081526004016109d190613d51565b60405180910390fd5b6109e5838383611bf7565b505050565b600060076000838152602001908152602001600020600101549050919050565b610a13826109ea565b610a2481610a1f611a58565b611e53565b610a2e8383611ef0565b505050565b600060011515600d60003373ffffffffffffffffffffffffffffffffffffffff1673ffffffffffffffffffffffffffffffffffffffff16815260200190815260200160002060009054906101000a900460ff16151514610a9257600080fd5b6000600a60008c81526020019081526020016000206040518061012001604052908160008201548152602001600182018054610acd9061411a565b80601f0160208091040260200160405190810160405280929190818152602001828054610af99061411a565b8015610b465780601f10610b1b57610100808354040283529160200191610b46565b820191906000526020600020905b815481529060010190602001808311610b2957829003601f168201915b50505050508152602001600282018054610b5f9061411a565b80601f0160208091040260200160405190810160405280929190818152602001828054610b8b9061411a565b8015610bd85780601f10610bad57610100808354040283529160200191610bd8565b820191906000526020600020905b815481529060010190602001808311610bbb57829003601f168201915b505050505081526020016003820160009054906101000a900473ffffffffffffffffffffffffffffffffffffffff1673ffffffffffffffffffffffffffffffffffffffff1673ffffffffffffffffffffffffffffffffffffffff168152602001600482015481526020016005820160009054906101000a900460ff161515151581526020016005820160019054906101000a900460ff161515151581526020016005820160029054906101000a900460ff16151515158152602001600682015481525050905089816020018190525088816040018190525087816060019073ffffffffffffffffffffffffffffffffffffffff16908173ffffffffffffffffffffffffffffffffffffffff168152505086816080018181525050858160a0019015159081151581525050848160c0019015159081151581525050838160e0019015159081151581525050828161010001818152505080600a60008d8152602001908152602001600020600082015181600001556020820151816001019080519060200190610d67929190612c2a565b506040820151816002019080519060200190610d84929190612c2a565b5060608201518160030160006101000a81548173ffffffffffffffffffffffffffffffffffffffff021916908373ffffffffffffffffffffffffffffffffffffffff1602179055506080820151816004015560a08201518160050160006101000a81548160ff02191690831515021790555060c08201518160050160016101000a81548160ff02191690831515021790555060e08201518160050160026101000a81548160ff021916908315150217905550610100820151816006015590505060019150509998505050505050505050565b600a602052806000526040600020600091509050806000015490806001018054610e7f9061411a565b80601f0160208091040260200160405190810160405280929190818152602001828054610eab9061411a565b8015610ef85780601f10610ecd57610100808354040283529160200191610ef8565b820191906000526020600020905b815481529060010190602001808311610edb57829003601f168201915b505050505090806002018054610f0d9061411a565b80601f0160208091040260200160405190810160405280929190818152602001828054610f399061411a565b8015610f865780601f10610f5b57610100808354040283529160200191610f86565b820191906000526020600020905b815481529060010190602001808311610f6957829003601f168201915b5050505050908060030160009054906101000a900473ffffffffffffffffffffffffffffffffffffffff16908060040154908060050160009054906101000a900460ff16908060050160019054906101000a900460ff16908060050160029054906101000a900460ff16908060060154905089565b611003611a58565b73ffffffffffffffffffffffffffffffffffffffff168173ffffffffffffffffffffffffffffffffffffffff1614611070576040517f08c379a000000000000000000000000000000000000000000000000000000000815260040161106790613d71565b60405180910390fd5b61107a8282611fd1565b5050565b611099838383604051806020016040528060008152506116c3565b505050565b600060011515600d60003373ffffffffffffffffffffffffffffffffffffffff1673ffffffffffffffffffffffffffffffffffffffff16815260200190815260200160002060009054906101000a900460ff161515146110fd57600080fd5b600160085461110c9190613f1b565b6008819055506000600854905061112333826120b3565b61112d81846120d1565b6040518061012001604052808281526020018681526020018481526020013373ffffffffffffffffffffffffffffffffffffffff1681526020018581526020016000151581526020016000151581526020016000151581526020016000815250600a60008381526020019081526020016000206000820151816000015560208201518160010190805190602001906111c6929190612c2a565b5060408201518160020190805190602001906111e3929190612c2a565b5060608201518160030160006101000a81548173ffffffffffffffffffffffffffffffffffffffff021916908373ffffffffffffffffffffffffffffffffffffffff1602179055506080820151816004015560a08201518160050160006101000a81548160ff02191690831515021790555060c08201518160050160016101000a81548160ff02191690831515021790555060e08201518160050160026101000a81548160ff0219169083151502179055506101008201518160060155905050809150509392505050565b6000806002600084815260200190815260200160002060009054906101000a900473ffffffffffffffffffffffffffffffffffffffff169050600073ffffffffffffffffffffffffffffffffffffffff168173ffffffffffffffffffffffffffffffffffffffff161415611357576040517f08c379a000000000000000000000000000000000000000000000000000000000815260040161134e90613c51565b60405180910390fd5b80915050919050565b600960009054906101000a900473ffffffffffffffffffffffffffffffffffffffff1681565b60008073ffffffffffffffffffffffffffffffffffffffff168273ffffffffffffffffffffffffffffffffffffffff1614156113f7576040517f08c379a00000000000000000000000000000000000000000000000000000000081526004016113ee90613c31565b60405180910390fd5b600360008373ffffffffffffffffffffffffffffffffffffffff1673ffffffffffffffffffffffffffffffffffffffff168152602001908152602001600020549050919050565b60006007600084815260200190815260200160002060000160008373ffffffffffffffffffffffffffffffffffffffff1673ffffffffffffffffffffffffffffffffffffffff16815260200190815260200160002060009054906101000a900460ff16905092915050565b6060600180546114b89061411a565b80601f01602080910402602001604051908101604052809291908181526020018280546114e49061411a565b80156115315780601f1061150657610100808354040283529160200191611531565b820191906000526020600020905b81548152906001019060200180831161151457829003601f168201915b5050505050905090565b6000801b81565b61154a611a58565b73ffffffffffffffffffffffffffffffffffffffff168273ffffffffffffffffffffffffffffffffffffffff1614156115b8576040517f08c379a00000000000000000000000000000000000000000000000000000000081526004016115af90613bd1565b60405180910390fd5b80600560006115c5611a58565b73ffffffffffffffffffffffffffffffffffffffff1673ffffffffffffffffffffffffffffffffffffffff16815260200190815260200160002060008473ffffffffffffffffffffffffffffffffffffffff1673ffffffffffffffffffffffffffffffffffffffff16815260200190815260200160002060006101000a81548160ff0219169083151502179055508173ffffffffffffffffffffffffffffffffffffffff16611672611a58565b73ffffffffffffffffffffffffffffffffffffffff167f17307eab39ab6107e8899845ad3d59bd9653f200f220920489ca2b5937696c31836040516116b79190613ade565b60405180910390a35050565b6116d46116ce611a58565b83611b19565b611713576040517f08c379a000000000000000000000000000000000000000000000000000000000815260040161170a90613d51565b60405180910390fd5b61171f84848484612145565b50505050565b6060611730826119ec565b61176f576040517f08c379a000000000000000000000000000000000000000000000000000000000815260040161176690613cb1565b60405180910390fd5b600060066000848152602001908152602001600020805461178f9061411a565b80601f01602080910402602001604051908101604052809291908181526020018280546117bb9061411a565b80156118085780601f106117dd57610100808354040283529160200191611808565b820191906000526020600020905b8154815290600101906020018083116117eb57829003601f168201915b5050505050905060006118196121a1565b905060008151141561182f578192505050611872565b60008251111561186457808260405160200161184c929190613a19565b60405160208183030381529060405292505050611872565b61186d846121b8565b925050505b919050565b60085481565b611886826109ea565b61189781611892611a58565b611e53565b6118a18383611fd1565b505050565b6000600560008473ffffffffffffffffffffffffffffffffffffffff1673ffffffffffffffffffffffffffffffffffffffff16815260200190815260200160002060008373ffffffffffffffffffffffffffffffffffffffff1673ffffffffffffffffffffffffffffffffffffffff16815260200190815260200160002060009054906101000a900460ff16905092915050565b600d6020528060005260406000206000915054906101000a900460ff1681565b600b6020528060005260406000206000915090505481565b60007f7965db0b000000000000000000000000000000000000000000000000000000007bffffffffffffffffffffffffffffffffffffffffffffffffffffffff1916827bffffffffffffffffffffffffffffffffffffffffffffffffffffffff191614806119e557506119e48261225f565b5b9050919050565b60008073ffffffffffffffffffffffffffffffffffffffff166002600084815260200190815260200160002060009054906101000a900473ffffffffffffffffffffffffffffffffffffffff1673ffffffffffffffffffffffffffffffffffffffff1614159050919050565b600033905090565b816004600083815260200190815260200160002060006101000a81548173ffffffffffffffffffffffffffffffffffffffff021916908373ffffffffffffffffffffffffffffffffffffffff160217905550808273ffffffffffffffffffffffffffffffffffffffff16611ad3836112ae565b73ffffffffffffffffffffffffffffffffffffffff167f8c5be1e5ebec7d5bd14f71427d1e84f3dd0314c0f7b2291e5b200ac8c7c3b92560405160405180910390a45050565b6000611b24826119ec565b611b63576040517f08c379a0000000000000000000000000000000000000000000000000000000008152600401611b5a90613bf1565b60405180910390fd5b6000611b6e836112ae565b90508073ffffffffffffffffffffffffffffffffffffffff168473ffffffffffffffffffffffffffffffffffffffff161480611bdd57508373ffffffffffffffffffffffffffffffffffffffff16611bc584610721565b73ffffffffffffffffffffffffffffffffffffffff16145b80611bee5750611bed81856118a6565b5b91505092915050565b8273ffffffffffffffffffffffffffffffffffffffff16611c17826112ae565b73ffffffffffffffffffffffffffffffffffffffff1614611c6d576040517f08c379a0000000000000000000000000000000000000000000000000000000008152600401611c6490613cf1565b60405180910390fd5b600073ffffffffffffffffffffffffffffffffffffffff168273ffffffffffffffffffffffffffffffffffffffff161415611cdd576040517f08c379a0000000000000000000000000000000000000000000000000000000008152600401611cd490613bb1565b60405180910390fd5b611ce8838383612341565b611cf3600082611a60565b6001600360008573ffffffffffffffffffffffffffffffffffffffff1673ffffffffffffffffffffffffffffffffffffffff1681526020019081526020016000206000828254611d439190613ffc565b925050819055506001600360008473ffffffffffffffffffffffffffffffffffffffff1673ffffffffffffffffffffffffffffffffffffffff1681526020019081526020016000206000828254611d9a9190613f1b565b92505081905550816002600083815260200190815260200160002060006101000a81548173ffffffffffffffffffffffffffffffffffffffff021916908373ffffffffffffffffffffffffffffffffffffffff160217905550808273ffffffffffffffffffffffffffffffffffffffff168473ffffffffffffffffffffffffffffffffffffffff167fddf252ad1be2c89b69c2b068fc378daa952ba7f163c4a11628f55a4df523b3ef60405160405180910390a4505050565b611e5d828261143e565b611eec57611e828173ffffffffffffffffffffffffffffffffffffffff166014612346565b611e908360001c6020612346565b604051602001611ea1929190613a3d565b6040516020818303038152906040526040517f08c379a0000000000000000000000000000000000000000000000000000000008152600401611ee39190613b2f565b60405180910390fd5b5050565b611efa828261143e565b611fcd5760016007600084815260200190815260200160002060000160008373ffffffffffffffffffffffffffffffffffffffff1673ffffffffffffffffffffffffffffffffffffffff16815260200190815260200160002060006101000a81548160ff021916908315150217905550611f72611a58565b73ffffffffffffffffffffffffffffffffffffffff168173ffffffffffffffffffffffffffffffffffffffff16837f2f8788117e7eff1d82e926ec794901d17c78024a50270940304540a733656f0d60405160405180910390a45b5050565b611fdb828261143e565b156120af5760006007600084815260200190815260200160002060000160008373ffffffffffffffffffffffffffffffffffffffff1673ffffffffffffffffffffffffffffffffffffffff16815260200190815260200160002060006101000a81548160ff021916908315150217905550612054611a58565b73ffffffffffffffffffffffffffffffffffffffff168173ffffffffffffffffffffffffffffffffffffffff16837ff6391f5c32d9c69d2a47ea670b442974b53935d1edc7fd64eb21e047a839171b60405160405180910390a45b5050565b6120cd828260405180602001604052806000815250612640565b5050565b6120da826119ec565b612119576040517f08c379a000000000000000000000000000000000000000000000000000000000815260040161211090613c71565b60405180910390fd5b80600660008481526020019081526020016000209080519060200190612140929190612c2a565b505050565b612150848484611bf7565b61215c8484848461269b565b61219b576040517f08c379a000000000000000000000000000000000000000000000000000000000815260040161219290613b71565b60405180910390fd5b50505050565b606060405180602001604052806000815250905090565b60606121c3826119ec565b612202576040517f08c379a00000000000000000000000000000000000000000000000000000000081526004016121f990613d11565b60405180910390fd5b600061220c6121a1565b9050600081511161222c5760405180602001604052806000815250612257565b8061223684612832565b604051602001612247929190613a19565b6040516020818303038152906040525b915050919050565b60007f80ac58cd000000000000000000000000000000000000000000000000000000007bffffffffffffffffffffffffffffffffffffffffffffffffffffffff1916827bffffffffffffffffffffffffffffffffffffffffffffffffffffffff1916148061232a57507f5b5e139f000000000000000000000000000000000000000000000000000000007bffffffffffffffffffffffffffffffffffffffffffffffffffffffff1916827bffffffffffffffffffffffffffffffffffffffffffffffffffffffff1916145b8061233a5750612339826129df565b5b9050919050565b505050565b6060600060028360026123599190613fa2565b6123639190613f1b565b67ffffffffffffffff8111156123a2577f4e487b7100000000000000000000000000000000000000000000000000000000600052604160045260246000fd5b6040519080825280601f01601f1916602001820160405280156123d45781602001600182028036833780820191505090505b5090507f300000000000000000000000000000000000000000000000000000000000000081600081518110612432577f4e487b7100000000000000000000000000000000000000000000000000000000600052603260045260246000fd5b60200101907effffffffffffffffffffffffffffffffffffffffffffffffffffffffffffff1916908160001a9053507f7800000000000000000000000000000000000000000000000000000000000000816001815181106124bc577f4e487b7100000000000000000000000000000000000000000000000000000000600052603260045260246000fd5b60200101907effffffffffffffffffffffffffffffffffffffffffffffffffffffffffffff1916908160001a905350600060018460026124fc9190613fa2565b6125069190613f1b565b90505b60018111156125f2577f3031323334353637383961626364656600000000000000000000000000000000600f86166010811061256e577f4e487b7100000000000000000000000000000000000000000000000000000000600052603260045260246000fd5b1a60f81b8282815181106125ab577f4e487b7100000000000000000000000000000000000000000000000000000000600052603260045260246000fd5b60200101907effffffffffffffffffffffffffffffffffffffffffffffffffffffffffffff1916908160001a905350600485901c9450806125eb906140f0565b9050612509565b5060008414612636576040517f08c379a000000000000000000000000000000000000000000000000000000000815260040161262d90613b51565b60405180910390fd5b8091505092915050565b61264a8383612a49565b612657600084848461269b565b612696576040517f08c379a000000000000000000000000000000000000000000000000000000000815260040161268d90613b71565b60405180910390fd5b505050565b60006126bc8473ffffffffffffffffffffffffffffffffffffffff16612c17565b15612825578373ffffffffffffffffffffffffffffffffffffffff1663150b7a026126e5611a58565b8786866040518563ffffffff1660e01b81526004016127079493929190613a92565b602060405180830381600087803b15801561272157600080fd5b505af192505050801561275257506040513d601f19601f8201168201806040525081019061274f9190613050565b60015b6127d5573d8060008114612782576040519150601f19603f3d011682016040523d82523d6000602084013e612787565b606091505b506000815114156127cd576040517f08c379a00000000000000000000000000000000000000000000000000000000081526004016127c490613b71565b60405180910390fd5b805181602001fd5b63150b7a0260e01b7bffffffffffffffffffffffffffffffffffffffffffffffffffffffff1916817bffffffffffffffffffffffffffffffffffffffffffffffffffffffff19161491505061282a565b600190505b949350505050565b6060600082141561287a576040518060400160405280600181526020017f300000000000000000000000000000000000000000000000000000000000000081525090506129da565b600082905060005b600082146128ac5780806128959061414c565b915050600a826128a59190613f71565b9150612882565b60008167ffffffffffffffff8111156128ee577f4e487b7100000000000000000000000000000000000000000000000000000000600052604160045260246000fd5b6040519080825280601f01601f1916602001820160405280156129205781602001600182028036833780820191505090505b5090505b600085146129d3576001826129399190613ffc565b9150600a856129489190614195565b60306129549190613f1b565b60f81b818381518110612990577f4e487b7100000000000000000000000000000000000000000000000000000000600052603260045260246000fd5b60200101907effffffffffffffffffffffffffffffffffffffffffffffffffffffffffffff1916908160001a905350600a856129cc9190613f71565b9450612924565b8093505050505b919050565b60007f01ffc9a7000000000000000000000000000000000000000000000000000000007bffffffffffffffffffffffffffffffffffffffffffffffffffffffff1916827bffffffffffffffffffffffffffffffffffffffffffffffffffffffff1916149050919050565b600073ffffffffffffffffffffffffffffffffffffffff168273ffffffffffffffffffffffffffffffffffffffff161415612ab9576040517f08c379a0000000000000000000000000000000000000000000000000000000008152600401612ab090613c91565b60405180910390fd5b612ac2816119ec565b15612b02576040517f08c379a0000000000000000000000000000000000000000000000000000000008152600401612af990613b91565b60405180910390fd5b612b0e60008383612341565b6001600360008473ffffffffffffffffffffffffffffffffffffffff1673ffffffffffffffffffffffffffffffffffffffff1681526020019081526020016000206000828254612b5e9190613f1b565b92505081905550816002600083815260200190815260200160002060006101000a81548173ffffffffffffffffffffffffffffffffffffffff021916908373ffffffffffffffffffffffffffffffffffffffff160217905550808273ffffffffffffffffffffffffffffffffffffffff16600073ffffffffffffffffffffffffffffffffffffffff167fddf252ad1be2c89b69c2b068fc378daa952ba7f163c4a11628f55a4df523b3ef60405160405180910390a45050565b600080823b905060008111915050919050565b828054612c369061411a565b90600052602060002090601f016020900481019282612c585760008555612c9f565b82601f10612c7157805160ff1916838001178555612c9f565b82800160010185558215612c9f579182015b82811115612c9e578251825591602001919060010190612c83565b5b509050612cac9190612cb0565b5090565b5b80821115612cc9576000816000905550600101612cb1565b5090565b6000612ce0612cdb84613e78565b613e47565b905082815260208101848484011115612cf857600080fd5b612d038482856140ae565b509392505050565b6000612d1e612d1984613ea8565b613e47565b905082815260208101848484011115612d3657600080fd5b612d418482856140ae565b509392505050565b600081359050612d5881614293565b92915050565b600081359050612d6d816142aa565b92915050565b600081359050612d82816142c1565b92915050565b600081359050612d97816142d8565b92915050565b600081519050612dac816142d8565b92915050565b600082601f830112612dc357600080fd5b8135612dd3848260208601612ccd565b91505092915050565b600082601f830112612ded57600080fd5b8135612dfd848260208601612d0b565b91505092915050565b600081359050612e15816142ef565b92915050565b600060208284031215612e2d57600080fd5b6000612e3b84828501612d49565b91505092915050565b60008060408385031215612e5757600080fd5b6000612e6585828601612d49565b9250506020612e7685828601612d49565b9150509250929050565b600080600060608486031215612e9557600080fd5b6000612ea386828701612d49565b9350506020612eb486828701612d49565b9250506040612ec586828701612e06565b9150509250925092565b60008060008060808587031215612ee557600080fd5b6000612ef387828801612d49565b9450506020612f0487828801612d49565b9350506040612f1587828801612e06565b925050606085013567ffffffffffffffff811115612f3257600080fd5b612f3e87828801612db2565b91505092959194509250565b60008060408385031215612f5d57600080fd5b6000612f6b85828601612d49565b9250506020612f7c85828601612d5e565b9150509250929050565b60008060408385031215612f9957600080fd5b6000612fa785828601612d49565b9250506020612fb885828601612e06565b9150509250929050565b600060208284031215612fd457600080fd5b6000612fe284828501612d73565b91505092915050565b60008060408385031215612ffe57600080fd5b600061300c85828601612d73565b925050602061301d85828601612d49565b9150509250929050565b60006020828403121561303957600080fd5b600061304784828501612d88565b91505092915050565b60006020828403121561306257600080fd5b600061307084828501612d9d565b91505092915050565b60008060006060848603121561308e57600080fd5b600084013567ffffffffffffffff8111156130a857600080fd5b6130b486828701612ddc565b93505060206130c586828701612e06565b925050604084013567ffffffffffffffff8111156130e257600080fd5b6130ee86828701612ddc565b9150509250925092565b60006020828403121561310a57600080fd5b600061311884828501612e06565b91505092915050565b60008060008060008060008060006101208a8c03121561314057600080fd5b600061314e8c828d01612e06565b99505060208a013567ffffffffffffffff81111561316b57600080fd5b6131778c828d01612ddc565b98505060408a013567ffffffffffffffff81111561319457600080fd5b6131a08c828d01612ddc565b97505060606131b18c828d01612d49565b96505060806131c28c828d01612e06565b95505060a06131d38c828d01612d5e565b94505060c06131e48c828d01612d5e565b93505060e06131f58c828d01612d5e565b9250506101006132078c828d01612e06565b9150509295985092959850929598565b61322081614030565b82525050565b61322f81614042565b82525050565b61323e8161404e565b82525050565b61324d81614058565b82525050565b600061325e82613ed8565b6132688185613eee565b93506132788185602086016140bd565b61328181614282565b840191505092915050565b600061329782613ee3565b6132a18185613eff565b93506132b18185602086016140bd565b6132ba81614282565b840191505092915050565b60006132d082613ee3565b6132da8185613f10565b93506132ea8185602086016140bd565b80840191505092915050565b6000613303602083613eff565b91507f537472696e67733a20686578206c656e67746820696e73756666696369656e746000830152602082019050919050565b6000613343603283613eff565b91507f4552433732313a207472616e7366657220746f206e6f6e20455243373231526560008301527f63656976657220696d706c656d656e74657200000000000000000000000000006020830152604082019050919050565b60006133a9601c83613eff565b91507f4552433732313a20746f6b656e20616c7265616479206d696e746564000000006000830152602082019050919050565b60006133e9602483613eff565b91507f4552433732313a207472616e7366657220746f20746865207a65726f2061646460008301527f72657373000000000000000000000000000000000000000000000000000000006020830152604082019050919050565b600061344f601983613eff565b91507f4552433732313a20617070726f766520746f2063616c6c6572000000000000006000830152602082019050919050565b600061348f602c83613eff565b91507f4552433732313a206f70657261746f7220717565727920666f72206e6f6e657860008301527f697374656e7420746f6b656e00000000000000000000000000000000000000006020830152604082019050919050565b60006134f5603883613eff565b91507f4552433732313a20617070726f76652063616c6c6572206973206e6f74206f7760008301527f6e6572206e6f7220617070726f76656420666f7220616c6c00000000000000006020830152604082019050919050565b600061355b602a83613eff565b91507f4552433732313a2062616c616e636520717565727920666f7220746865207a6560008301527f726f2061646472657373000000000000000000000000000000000000000000006020830152604082019050919050565b60006135c1602983613eff565b91507f4552433732313a206f776e657220717565727920666f72206e6f6e657869737460008301527f656e7420746f6b656e00000000000000000000000000000000000000000000006020830152604082019050919050565b6000613627602e83613eff565b91507f45524337323155524953746f726167653a2055524920736574206f66206e6f6e60008301527f6578697374656e7420746f6b656e0000000000000000000000000000000000006020830152604082019050919050565b600061368d602083613eff565b91507f4552433732313a206d696e7420746f20746865207a65726f20616464726573736000830152602082019050919050565b60006136cd603183613eff565b91507f45524337323155524953746f726167653a2055524920717565727920666f722060008301527f6e6f6e6578697374656e7420746f6b656e0000000000000000000000000000006020830152604082019050919050565b6000613733602c83613eff565b91507f4552433732313a20617070726f76656420717565727920666f72206e6f6e657860008301527f697374656e7420746f6b656e00000000000000000000000000000000000000006020830152604082019050919050565b6000613799602983613eff565b91507f4552433732313a207472616e73666572206f6620746f6b656e2074686174206960008301527f73206e6f74206f776e00000000000000000000000000000000000000000000006020830152604082019050919050565b60006137ff602f83613eff565b91507f4552433732314d657461646174613a2055524920717565727920666f72206e6f60008301527f6e6578697374656e7420746f6b656e00000000000000000000000000000000006020830152604082019050919050565b6000613865602183613eff565b91507f4552433732313a20617070726f76616c20746f2063757272656e74206f776e6560008301527f72000000000000000000000000000000000000000000000000000000000000006020830152604082019050919050565b60006138cb603183613eff565b91507f4552433732313a207472616e736665722063616c6c6572206973206e6f74206f60008301527f776e6572206e6f7220617070726f7665640000000000000000000000000000006020830152604082019050919050565b6000613931601783613f10565b91507f416363657373436f6e74726f6c3a206163636f756e74200000000000000000006000830152601782019050919050565b6000613971601183613f10565b91507f206973206d697373696e6720726f6c65200000000000000000000000000000006000830152601182019050919050565b60006139b1602f83613eff565b91507f416363657373436f6e74726f6c3a2063616e206f6e6c792072656e6f756e636560008301527f20726f6c657320666f722073656c6600000000000000000000000000000000006020830152604082019050919050565b613a13816140a4565b82525050565b6000613a2582856132c5565b9150613a3182846132c5565b91508190509392505050565b6000613a4882613924565b9150613a5482856132c5565b9150613a5f82613964565b9150613a6b82846132c5565b91508190509392505050565b6000602082019050613a8c6000830184613217565b92915050565b6000608082019050613aa76000830187613217565b613ab46020830186613217565b613ac16040830185613a0a565b8181036060830152613ad38184613253565b905095945050505050565b6000602082019050613af36000830184613226565b92915050565b6000602082019050613b0e6000830184613235565b92915050565b6000602082019050613b296000830184613244565b92915050565b60006020820190508181036000830152613b49818461328c565b905092915050565b60006020820190508181036000830152613b6a816132f6565b9050919050565b60006020820190508181036000830152613b8a81613336565b9050919050565b60006020820190508181036000830152613baa8161339c565b9050919050565b60006020820190508181036000830152613bca816133dc565b9050919050565b60006020820190508181036000830152613bea81613442565b9050919050565b60006020820190508181036000830152613c0a81613482565b9050919050565b60006020820190508181036000830152613c2a816134e8565b9050919050565b60006020820190508181036000830152613c4a8161354e565b9050919050565b60006020820190508181036000830152613c6a816135b4565b9050919050565b60006020820190508181036000830152613c8a8161361a565b9050919050565b60006020820190508181036000830152613caa81613680565b9050919050565b60006020820190508181036000830152613cca816136c0565b9050919050565b60006020820190508181036000830152613cea81613726565b9050919050565b60006020820190508181036000830152613d0a8161378c565b9050919050565b60006020820190508181036000830152613d2a816137f2565b9050919050565b60006020820190508181036000830152613d4a81613858565b9050919050565b60006020820190508181036000830152613d6a816138be565b9050919050565b60006020820190508181036000830152613d8a816139a4565b9050919050565b6000602082019050613da66000830184613a0a565b92915050565b600061012082019050613dc2600083018c613a0a565b8181036020830152613dd4818b61328c565b90508181036040830152613de8818a61328c565b9050613df76060830189613217565b613e046080830188613a0a565b613e1160a0830187613226565b613e1e60c0830186613226565b613e2b60e0830185613226565b613e39610100830184613a0a565b9a9950505050505050505050565b6000604051905081810181811067ffffffffffffffff82111715613e6e57613e6d614253565b5b8060405250919050565b600067ffffffffffffffff821115613e9357613e92614253565b5b601f19601f8301169050602081019050919050565b600067ffffffffffffffff821115613ec357613ec2614253565b5b601f19601f8301169050602081019050919050565b600081519050919050565b600081519050919050565b600082825260208201905092915050565b600082825260208201905092915050565b600081905092915050565b6000613f26826140a4565b9150613f31836140a4565b9250827fffffffffffffffffffffffffffffffffffffffffffffffffffffffffffffffff03821115613f6657613f656141c6565b5b828201905092915050565b6000613f7c826140a4565b9150613f87836140a4565b925082613f9757613f966141f5565b5b828204905092915050565b6000613fad826140a4565b9150613fb8836140a4565b9250817fffffffffffffffffffffffffffffffffffffffffffffffffffffffffffffffff0483118215151615613ff157613ff06141c6565b5b828202905092915050565b6000614007826140a4565b9150614012836140a4565b925082821015614025576140246141c6565b5b828203905092915050565b600061403b82614084565b9050919050565b60008115159050919050565b6000819050919050565b60007fffffffff0000000000000000000000000000000000000000000000000000000082169050919050565b600073ffffffffffffffffffffffffffffffffffffffff82169050919050565b6000819050919050565b82818337600083830152505050565b60005b838110156140db5780820151818401526020810190506140c0565b838111156140ea576000848401525b50505050565b60006140fb826140a4565b9150600082141561410f5761410e6141c6565b5b600182039050919050565b6000600282049050600182168061413257607f821691505b6020821081141561414657614145614224565b5b50919050565b6000614157826140a4565b91507fffffffffffffffffffffffffffffffffffffffffffffffffffffffffffffffff82141561418a576141896141c6565b5b600182019050919050565b60006141a0826140a4565b91506141ab836140a4565b9250826141bb576141ba6141f5565b5b828206905092915050565b7f4e487b7100000000000000000000000000000000000000000000000000000000600052601160045260246000fd5b7f4e487b7100000000000000000000000000000000000000000000000000000000600052601260045260246000fd5b7f4e487b7100000000000000000000000000000000000000000000000000000000600052602260045260246000fd5b7f4e487b7100000000000000000000000000000000000000000000000000000000600052604160045260246000fd5b6000601f19601f8301169050919050565b61429c81614030565b81146142a757600080fd5b50565b6142b381614042565b81146142be57600080fd5b50565b6142ca8161404e565b81146142d557600080fd5b50565b6142e181614058565b81146142ec57600080fd5b50565b6142f8816140a4565b811461430357600080fd5b5056fea264697066735822122047f0f96e7d5225b45ee87ad9547813b28083a0f2dbe738b84a8847c0ff63779764736f6c63430008000033",
  "immutableReferences": {},
  "source": "// SPDX-License-Identifier: MIT\npragma solidity ^0.8.0;\n\nimport \"@openzeppelin/contracts/token/ERC721/extensions/ERC721URIStorage.sol\";\nimport \"@openzeppelin/contracts/utils/Counters.sol\";\nimport \"@openzeppelin/contracts/access/AccessControl.sol\";\nimport \"@openzeppelin/contracts/token/ERC721/IERC721Receiver.sol\";\nimport {SafeMath} from \"./utils/SafeMath.sol\";\n\ncontract Assets is ERC721URIStorage, IERC721Receiver, AccessControl {\n    using SafeMath for uint256;\n\n    uint256 public tokenCounter;\n    // super admin\n    address public Validator;\n\n    struct Asset {\n        uint256 id;\n        string name;\n        string ipfsHash;\n        address owner;\n        uint256 price;\n        bool authenticate;\n        bool collateralLocked;\n        bool liquidityRemoved;\n        uint256 totalStake;\n    }\n\n    mapping(uint256 => Asset) public AssetNfts;\n    mapping(address => uint256) public deposit;\n    \n    address[] public owners;\n    mapping(address => bool) public ownerByAddress;\n\n    modifier onlyOwner() {\n        require(ownerByAddress[msg.sender] == true);\n        _;\n    }\n\n    constructor() ERC721(\"Altantis\", \"Assets\") {\n        tokenCounter = 0;\n        _setupRole(DEFAULT_ADMIN_ROLE, _msgSender());\n        \n        ownerByAddress[msg.sender] = true;\n        Validator = msg.sender;\n    }\n\n    function setOwner( address _owner ) public onlyOwner {\n        ownerByAddress[_owner] = true;\n    }\n\n    function createCollectible(\n        string memory _name,\n        uint256 _price,\n        string memory tokenURI\n    ) public onlyOwner returns (uint256) {\n        tokenCounter = tokenCounter + 1;\n        uint256 newItemId = tokenCounter;\n\n        _safeMint(msg.sender, newItemId);\n        _setTokenURI(newItemId, tokenURI);\n\n        AssetNfts[newItemId] = Asset(\n            newItemId,\n            _name,\n            tokenURI,\n            msg.sender,\n            _price,\n            false,\n            false,\n            false,\n            0\n        );\n\n        return newItemId;\n    }\n\n    function modifyCollectable(\n        uint256 tokenId,\n        string memory name,\n        string memory ipfsHash,\n        address owner,\n        uint256 price,\n        bool authenticate,\n        bool collateralLocked,\n        bool liquidityRemoved,\n        uint256 totalStake\n    ) public onlyOwner returns (bool) {\n        Asset memory _asset = AssetNfts[tokenId];\n\n        _asset.name = name;\n        _asset.ipfsHash = ipfsHash;\n        _asset.owner = owner;\n        _asset.price = price;\n        _asset.authenticate = authenticate;\n        _asset.collateralLocked = collateralLocked;\n        _asset.liquidityRemoved = liquidityRemoved;\n        _asset.totalStake = totalStake;\n\n        AssetNfts[tokenId] = _asset;\n        return true;\n    }\n\n    function onERC721Received(address, address, uint256, bytes memory) public virtual override returns (bytes4) {\n        return this.onERC721Received.selector;\n    }\n\n    function supportsInterface(bytes4 interfaceId) public view virtual override(ERC721, AccessControl) returns (bool) {\n        return super.supportsInterface(interfaceId);\n    }\n}",
  "sourcePath": "/Users/sagarbehara/Work/Atlantis-contracts/contracts/Asset.sol",
  "compiler": {
    "name": "solc",
    "version": "0.8.0+commit.c7dfd78e.Emscripten.clang"
  },
  "schemaVersion": "3.4.1",
  "updatedAt": "2021-08-07T14:52:07.116Z",
  "networkType": "ethereum",
  "devdoc": {
    "kind": "dev",
    "methods": {
      "approve(address,uint256)": {
        "details": "See {IERC721-approve}."
      },
      "balanceOf(address)": {
        "details": "See {IERC721-balanceOf}."
      },
      "getApproved(uint256)": {
        "details": "See {IERC721-getApproved}."
      },
      "getRoleAdmin(bytes32)": {
        "details": "Returns the admin role that controls `role`. See {grantRole} and {revokeRole}. To change a role's admin, use {_setRoleAdmin}."
      },
      "grantRole(bytes32,address)": {
        "details": "Grants `role` to `account`. If `account` had not been already granted `role`, emits a {RoleGranted} event. Requirements: - the caller must have ``role``'s admin role."
      },
      "hasRole(bytes32,address)": {
        "details": "Returns `true` if `account` has been granted `role`."
      },
      "isApprovedForAll(address,address)": {
        "details": "See {IERC721-isApprovedForAll}."
      },
      "name()": {
        "details": "See {IERC721Metadata-name}."
      },
      "ownerOf(uint256)": {
        "details": "See {IERC721-ownerOf}."
      },
      "renounceRole(bytes32,address)": {
        "details": "Revokes `role` from the calling account. Roles are often managed via {grantRole} and {revokeRole}: this function's purpose is to provide a mechanism for accounts to lose their privileges if they are compromised (such as when a trusted device is misplaced). If the calling account had been granted `role`, emits a {RoleRevoked} event. Requirements: - the caller must be `account`."
      },
      "revokeRole(bytes32,address)": {
        "details": "Revokes `role` from `account`. If `account` had been granted `role`, emits a {RoleRevoked} event. Requirements: - the caller must have ``role``'s admin role."
      },
      "safeTransferFrom(address,address,uint256)": {
        "details": "See {IERC721-safeTransferFrom}."
      },
      "safeTransferFrom(address,address,uint256,bytes)": {
        "details": "See {IERC721-safeTransferFrom}."
      },
      "setApprovalForAll(address,bool)": {
        "details": "See {IERC721-setApprovalForAll}."
      },
      "symbol()": {
        "details": "See {IERC721Metadata-symbol}."
      },
      "tokenURI(uint256)": {
        "details": "See {IERC721Metadata-tokenURI}."
      },
      "transferFrom(address,address,uint256)": {
        "details": "See {IERC721-transferFrom}."
      }
    },
    "version": 1
  },
  "userdoc": {
    "kind": "user",
    "methods": {},
    "version": 1
  }
}